{
  "contractName": "Owner",
  "abi": [
    {
      "inputs": [
        {
          "internalType": "string",
          "name": "_tcknOrVkn",
          "type": "string"
        },
        {
          "internalType": "string",
          "name": "_fullName",
          "type": "string"
        }
      ],
      "name": "addOwner",
      "outputs": [],
      "stateMutability": "nonpayable",
      "type": "function"
    },
    {
      "inputs": [
        {
          "internalType": "address",
          "name": "ownAdd",
          "type": "address"
        }
      ],
      "name": "isOwnerRegistered",
      "outputs": [
        {
          "internalType": "bool",
          "name": "",
          "type": "bool"
        }
      ],
      "stateMutability": "view",
      "type": "function",
      "constant": true
    }
  ],
  "bytecode": "0x608060405234801561001057600080fd5b506105cb806100206000396000f3fe608060405234801561001057600080fd5b50600436106100365760003560e01c80632967d1d81461003b578063962cd04b1461006b575b600080fd5b61005560048036038101906100509190610314565b610087565b604051610062919061035c565b60405180910390f35b610085600480360381019061008091906104bd565b6100df565b005b60008060008373ffffffffffffffffffffffffffffffffffffffff1673ffffffffffffffffffffffffffffffffffffffff16815260200190815260200160002060030160009054906101000a900460ff169050919050565b60405180608001604052803373ffffffffffffffffffffffffffffffffffffffff168152602001838152602001828152602001600115158152506000803373ffffffffffffffffffffffffffffffffffffffff1673ffffffffffffffffffffffffffffffffffffffff16815260200190815260200160002060008201518160000160006101000a81548173ffffffffffffffffffffffffffffffffffffffff021916908373ffffffffffffffffffffffffffffffffffffffff16021790555060208201518160010190805190602001906101ba9291906101ff565b5060408201518160020190805190602001906101d79291906101ff565b5060608201518160030160006101000a81548160ff0219169083151502179055509050505050565b82805461020b90610564565b90600052602060002090601f01602090048101928261022d5760008555610274565b82601f1061024657805160ff1916838001178555610274565b82800160010185558215610274579182015b82811115610273578251825591602001919060010190610258565b5b5090506102819190610285565b5090565b5b8082111561029e576000816000905550600101610286565b5090565b6000604051905090565b600080fd5b600080fd5b600073ffffffffffffffffffffffffffffffffffffffff82169050919050565b60006102e1826102b6565b9050919050565b6102f1816102d6565b81146102fc57600080fd5b50565b60008135905061030e816102e8565b92915050565b60006020828403121561032a576103296102ac565b5b6000610338848285016102ff565b91505092915050565b60008115159050919050565b61035681610341565b82525050565b6000602082019050610371600083018461034d565b92915050565b600080fd5b600080fd5b6000601f19601f8301169050919050565b7f4e487b7100000000000000000000000000000000000000000000000000000000600052604160045260246000fd5b6103ca82610381565b810181811067ffffffffffffffff821117156103e9576103e8610392565b5b80604052505050565b60006103fc6102a2565b905061040882826103c1565b919050565b600067ffffffffffffffff82111561042857610427610392565b5b61043182610381565b9050602081019050919050565b82818337600083830152505050565b600061046061045b8461040d565b6103f2565b90508281526020810184848401111561047c5761047b61037c565b5b61048784828561043e565b509392505050565b600082601f8301126104a4576104a3610377565b5b81356104b484826020860161044d565b91505092915050565b600080604083850312156104d4576104d36102ac565b5b600083013567ffffffffffffffff8111156104f2576104f16102b1565b5b6104fe8582860161048f565b925050602083013567ffffffffffffffff81111561051f5761051e6102b1565b5b61052b8582860161048f565b9150509250929050565b7f4e487b7100000000000000000000000000000000000000000000000000000000600052602260045260246000fd5b6000600282049050600182168061057c57607f821691505b60208210810361058f5761058e610535565b5b5091905056fea2646970667358221220a16b0f8457a726f44f2a0fcc564cdbe731773a53d1ecd109aae929ade79a0ace64736f6c634300080e0033",
  "immutableReferences": {},
  "source": "// SPDX-License-Identifier: UNLICENSED\r\npragma solidity ^0.8.0;\r\n\r\ncontract Owner {\r\n\r\n    struct OwnerInfo {\r\n      address  ownerAdd;\r\n      string tcknorVkn;\r\n      string fullName;\r\n      bool registered;\r\n    }\r\n    \r\n    mapping(address => OwnerInfo) ownerMap;\r\n\r\n    function addOwner(string memory _tcknOrVkn, string memory _fullName) public {\r\n         ownerMap[msg.sender] = OwnerInfo(msg.sender, _tcknOrVkn, _fullName, true);\r\n    }\r\n\r\n    function isOwnerRegistered(address ownAdd) public view returns(bool){\r\n        return ownerMap[ownAdd].registered;\r\n    }\r\n  \r\n}\r\n",
  "sourcePath": "D:\\Ethereum Projects\\DAWithEth\\truffle-project\\contracts\\Owner.sol",
  "compiler": {
    "name": "solc",
    "version": "0.8.14+commit.80d49f37.Emscripten.clang"
  },
  "schemaVersion": "3.4.11",
  "updatedAt": "2022-12-28T18:22:55.605Z",
  "networkType": "ethereum",
  "devdoc": {
    "kind": "dev",
    "methods": {},
    "version": 1
  },
  "userdoc": {
    "kind": "user",
    "methods": {},
    "version": 1
  }
}