{
  "contractName": "Owner",
  "abi": [
    {
      "inputs": [
        {
          "internalType": "string",
          "name": "_tcknOrVkn",
          "type": "string"
        },
        {
          "internalType": "string",
          "name": "_fullName",
          "type": "string"
        }
      ],
      "name": "addOwner",
      "outputs": [],
      "stateMutability": "nonpayable",
      "type": "function"
    },
    {
      "inputs": [
        {
          "internalType": "string",
          "name": "_tcknOrVkn",
          "type": "string"
        },
        {
          "internalType": "string",
          "name": "_fullName",
          "type": "string"
        }
      ],
      "name": "addAdmin",
      "outputs": [],
      "stateMutability": "nonpayable",
      "type": "function"
    },
    {
      "inputs": [
        {
          "internalType": "address",
          "name": "ownAdd",
          "type": "address"
        }
      ],
      "name": "isOwnerRegistered",
      "outputs": [
        {
          "internalType": "bool",
          "name": "",
          "type": "bool"
        }
      ],
      "stateMutability": "view",
      "type": "function"
    },
    {
      "inputs": [
        {
          "internalType": "address",
          "name": "add",
          "type": "address"
        }
      ],
      "name": "isAdmin",
      "outputs": [
        {
          "internalType": "bool",
          "name": "",
          "type": "bool"
        }
      ],
      "stateMutability": "view",
      "type": "function"
    }
  ],
  "bytecode": "0x608060405234801561001057600080fd5b5061088c806100206000396000f3fe608060405234801561001057600080fd5b506004361061004c5760003560e01c80631f4590411461005157806324d7806c1461006d5780632967d1d81461009d578063962cd04b146100cd575b600080fd5b61006b6004803603810190610066919061068e565b6100e9565b005b61008760048036038101906100829190610764565b610252565b60405161009491906107ac565b60405180910390f35b6100b760048036038101906100b29190610764565b6102d1565b6040516100c491906107ac565b60405180910390f35b6100e760048036038101906100e2919061068e565b610329565b005b6040518060a001604052803373ffffffffffffffffffffffffffffffffffffffff16815260200183815260200182815260200160011515815260200160016002811115610139576101386107c7565b5b8152506000803373ffffffffffffffffffffffffffffffffffffffff1673ffffffffffffffffffffffffffffffffffffffff16815260200190815260200160002060008201518160000160006101000a81548173ffffffffffffffffffffffffffffffffffffffff021916908373ffffffffffffffffffffffffffffffffffffffff16021790555060208201518160010190805190602001906101dd929190610491565b5060408201518160020190805190602001906101fa929190610491565b5060608201518160030160006101000a81548160ff02191690831515021790555060808201518160030160016101000a81548160ff02191690836002811115610246576102456107c7565b5b02179055509050505050565b600060016002811115610268576102676107c7565b5b6000808473ffffffffffffffffffffffffffffffffffffffff1673ffffffffffffffffffffffffffffffffffffffff16815260200190815260200160002060030160019054906101000a900460ff1660028111156102c9576102c86107c7565b5b149050919050565b60008060008373ffffffffffffffffffffffffffffffffffffffff1673ffffffffffffffffffffffffffffffffffffffff16815260200190815260200160002060030160009054906101000a900460ff169050919050565b6040518060a001604052803373ffffffffffffffffffffffffffffffffffffffff168152602001838152602001828152602001600115158152602001600280811115610378576103776107c7565b5b8152506000803373ffffffffffffffffffffffffffffffffffffffff1673ffffffffffffffffffffffffffffffffffffffff16815260200190815260200160002060008201518160000160006101000a81548173ffffffffffffffffffffffffffffffffffffffff021916908373ffffffffffffffffffffffffffffffffffffffff160217905550602082015181600101908051906020019061041c929190610491565b506040820151816002019080519060200190610439929190610491565b5060608201518160030160006101000a81548160ff02191690831515021790555060808201518160030160016101000a81548160ff02191690836002811115610485576104846107c7565b5b02179055509050505050565b82805461049d90610825565b90600052602060002090601f0160209004810192826104bf5760008555610506565b82601f106104d857805160ff1916838001178555610506565b82800160010185558215610506579182015b828111156105055782518255916020019190600101906104ea565b5b5090506105139190610517565b5090565b5b80821115610530576000816000905550600101610518565b5090565b6000604051905090565b600080fd5b600080fd5b600080fd5b600080fd5b6000601f19601f8301169050919050565b7f4e487b7100000000000000000000000000000000000000000000000000000000600052604160045260246000fd5b61059b82610552565b810181811067ffffffffffffffff821117156105ba576105b9610563565b5b80604052505050565b60006105cd610534565b90506105d98282610592565b919050565b600067ffffffffffffffff8211156105f9576105f8610563565b5b61060282610552565b9050602081019050919050565b82818337600083830152505050565b600061063161062c846105de565b6105c3565b90508281526020810184848401111561064d5761064c61054d565b5b61065884828561060f565b509392505050565b600082601f83011261067557610674610548565b5b813561068584826020860161061e565b91505092915050565b600080604083850312156106a5576106a461053e565b5b600083013567ffffffffffffffff8111156106c3576106c2610543565b5b6106cf85828601610660565b925050602083013567ffffffffffffffff8111156106f0576106ef610543565b5b6106fc85828601610660565b9150509250929050565b600073ffffffffffffffffffffffffffffffffffffffff82169050919050565b600061073182610706565b9050919050565b61074181610726565b811461074c57600080fd5b50565b60008135905061075e81610738565b92915050565b60006020828403121561077a5761077961053e565b5b60006107888482850161074f565b91505092915050565b60008115159050919050565b6107a681610791565b82525050565b60006020820190506107c1600083018461079d565b92915050565b7f4e487b7100000000000000000000000000000000000000000000000000000000600052602160045260246000fd5b7f4e487b7100000000000000000000000000000000000000000000000000000000600052602260045260246000fd5b6000600282049050600182168061083d57607f821691505b6020821081036108505761084f6107f6565b5b5091905056fea264697066735822122027285a54aad75ef1956614ce75ef842269b5384b74625d1e694da34262c2168f64736f6c634300080e0033",
  "immutableReferences": {},
  "source": "// SPDX-License-Identifier: UNLICENSED\r\npragma solidity ^0.8.0;\r\n\r\ncontract Owner {\r\n\r\n    struct OwnerInfo {\r\n      address  ownerAdd;\r\n      string tcknorVkn;\r\n      string fullName;\r\n      bool registered;      \r\n      Rol rol;\r\n    }\r\n    \r\n    enum Rol {\r\n        UNAUTHORIZED,\r\n        ADMIN,\r\n        USER\r\n    }\r\n\r\n    mapping(address => OwnerInfo) ownerMap;\r\n\r\n    function addOwner(string memory _tcknOrVkn, string memory _fullName) public {\r\n         ownerMap[msg.sender] = OwnerInfo(msg.sender, _tcknOrVkn, _fullName, true, Rol.USER);\r\n    }\r\n\r\n    function addAdmin(string memory _tcknOrVkn, string memory _fullName) public {\r\n         ownerMap[msg.sender] = OwnerInfo(msg.sender, _tcknOrVkn, _fullName, true, Rol.ADMIN);\r\n    }\r\n\r\n    function isOwnerRegistered(address ownAdd) public view returns(bool){\r\n        return ownerMap[ownAdd].registered;\r\n    }\r\n\r\n    function isAdmin(address add) public view returns(bool){\r\n      return ownerMap[add].rol == Rol.ADMIN;\r\n    }\r\n  \r\n}\r\n",
  "sourcePath": "D:\\Ethereum Projects\\DAWithEth\\truffle-project\\contracts\\Owner.sol",
  "compiler": {
    "name": "solc",
    "version": "0.8.14+commit.80d49f37.Emscripten.clang"
  },
  "schemaVersion": "3.4.11",
  "updatedAt": "2023-01-08T10:32:05.387Z",
  "devdoc": {
    "kind": "dev",
    "methods": {},
    "version": 1
  },
  "userdoc": {
    "kind": "user",
    "methods": {},
    "version": 1
  }
}