{
  "contractName": "RealEstate",
  "abi": [
    {
      "inputs": [],
      "name": "add",
      "outputs": [],
      "stateMutability": "nonpayable",
      "type": "function"
    },
    {
      "inputs": [
        {
          "internalType": "string",
          "name": "mahalle",
          "type": "string"
        },
        {
          "internalType": "uint256",
          "name": "payda",
          "type": "uint256"
        }
      ],
      "name": "addRealEstate",
      "outputs": [],
      "stateMutability": "nonpayable",
      "type": "function"
    },
    {
      "inputs": [
        {
          "internalType": "uint256",
          "name": "realEstateId",
          "type": "uint256"
        }
      ],
      "name": "isRealEstateRegisted",
      "outputs": [
        {
          "internalType": "bool",
          "name": "",
          "type": "bool"
        }
      ],
      "stateMutability": "view",
      "type": "function",
      "constant": true
    },
    {
      "inputs": [
        {
          "internalType": "uint256",
          "name": "realEstateId",
          "type": "uint256"
        }
      ],
      "name": "getRealEstatePayda",
      "outputs": [
        {
          "internalType": "uint256",
          "name": "",
          "type": "uint256"
        }
      ],
      "stateMutability": "view",
      "type": "function",
      "constant": true
    },
    {
      "inputs": [
        {
          "internalType": "uint256",
          "name": "realEstateId",
          "type": "uint256"
        }
      ],
      "name": "getRealEstateInfo",
      "outputs": [
        {
          "internalType": "string",
          "name": "",
          "type": "string"
        }
      ],
      "stateMutability": "view",
      "type": "function",
      "constant": true
    },
    {
      "inputs": [
        {
          "internalType": "string",
          "name": "mahalle",
          "type": "string"
        }
      ],
      "name": "getId",
      "outputs": [
        {
          "internalType": "uint256",
          "name": "",
          "type": "uint256"
        }
      ],
      "stateMutability": "pure",
      "type": "function",
      "constant": true
    }
  ],
  "bytecode": "0x608060405234801561001057600080fd5b506107dd806100206000396000f3fe608060405234801561001057600080fd5b50600436106100625760003560e01c80633c7422df146100675780634f2be91f146100975780635a8f6713146100a1578063969430e2146100d15780639f8188b3146100ed578063bee51f3b1461011d575b600080fd5b610081600480360381019061007c9190610425565b61014d565b60405161008e9190610461565b60405180910390f35b61009f61016c565b005b6100bb60048036038101906100b69190610425565b6101ae565b6040516100c89190610497565b60405180910390f35b6100eb60048036038101906100e691906105f8565b6101da565b005b61010760048036038101906101029190610425565b610278565b60405161011491906106dc565b60405180910390f35b610137600480360381019061013291906106fe565b61031f565b6040516101449190610461565b60405180910390f35b6000806000838152602001908152602001600020600201549050919050565b6101ac6040518060400160405280600981526020017f6b61726170696e6172000000000000000000000000000000000000000000000081525060026101da565b565b600080600083815260200190815260200160002060030160009054906101000a900460ff169050919050565b6000828051906020012060001c9050604051806080016040528082815260200184815260200183815260200160011515815250600080838152602001908152602001600020600082015181600001556020820151816001019080519060200190610245929190610338565b506040820151816002015560608201518160030160006101000a81548160ff021916908315150217905550905050505050565b6060600080838152602001908152602001600020600101805461029a90610776565b80601f01602080910402602001604051908101604052809291908181526020018280546102c690610776565b80156103135780601f106102e857610100808354040283529160200191610313565b820191906000526020600020905b8154815290600101906020018083116102f657829003601f168201915b50505050509050919050565b600080828051906020012060001c905080915050919050565b82805461034490610776565b90600052602060002090601f01602090048101928261036657600085556103ad565b82601f1061037f57805160ff19168380011785556103ad565b828001600101855582156103ad579182015b828111156103ac578251825591602001919060010190610391565b5b5090506103ba91906103be565b5090565b5b808211156103d75760008160009055506001016103bf565b5090565b6000604051905090565b600080fd5b600080fd5b6000819050919050565b610402816103ef565b811461040d57600080fd5b50565b60008135905061041f816103f9565b92915050565b60006020828403121561043b5761043a6103e5565b5b600061044984828501610410565b91505092915050565b61045b816103ef565b82525050565b60006020820190506104766000830184610452565b92915050565b60008115159050919050565b6104918161047c565b82525050565b60006020820190506104ac6000830184610488565b92915050565b600080fd5b600080fd5b6000601f19601f8301169050919050565b7f4e487b7100000000000000000000000000000000000000000000000000000000600052604160045260246000fd5b610505826104bc565b810181811067ffffffffffffffff82111715610524576105236104cd565b5b80604052505050565b60006105376103db565b905061054382826104fc565b919050565b600067ffffffffffffffff821115610563576105626104cd565b5b61056c826104bc565b9050602081019050919050565b82818337600083830152505050565b600061059b61059684610548565b61052d565b9050828152602081018484840111156105b7576105b66104b7565b5b6105c2848285610579565b509392505050565b600082601f8301126105df576105de6104b2565b5b81356105ef848260208601610588565b91505092915050565b6000806040838503121561060f5761060e6103e5565b5b600083013567ffffffffffffffff81111561062d5761062c6103ea565b5b610639858286016105ca565b925050602061064a85828601610410565b9150509250929050565b600081519050919050565b600082825260208201905092915050565b60005b8381101561068e578082015181840152602081019050610673565b8381111561069d576000848401525b50505050565b60006106ae82610654565b6106b8818561065f565b93506106c8818560208601610670565b6106d1816104bc565b840191505092915050565b600060208201905081810360008301526106f681846106a3565b905092915050565b600060208284031215610714576107136103e5565b5b600082013567ffffffffffffffff811115610732576107316103ea565b5b61073e848285016105ca565b91505092915050565b7f4e487b7100000000000000000000000000000000000000000000000000000000600052602260045260246000fd5b6000600282049050600182168061078e57607f821691505b6020821081036107a1576107a0610747565b5b5091905056fea2646970667358221220783e0d886207cc3982800d0039e7eec5fe258526b2308611f42fe93a7382ad4b64736f6c634300080e0033",
  "immutableReferences": {},
  "source": "// SPDX-License-Identifier: UNLICENSED\r\npragma solidity ^0.8.0;\r\n\r\nimport \"./NotaryContractBase.sol\";\r\n\r\ncontract RealEstate is NotaryContractBase {\r\n\r\n    mapping(uint => RealEstateData) realEstateMap; \r\n    \r\n    function add() public {\r\n        addRealEstate(\"karapinar\", 2);\r\n    }\r\n\r\n    function addRealEstate(string memory mahalle, uint payda) public{\r\n        uint realEstateId=uint(keccak256(bytes(mahalle))); //TODO bilgilerin daha nceden olmadn kontrol et\r\n        realEstateMap[realEstateId] = RealEstateData(realEstateId, mahalle, payda, true);\r\n    }\r\n\r\n    function isRealEstateRegisted(uint realEstateId) public view returns(bool){\r\n        return realEstateMap[realEstateId].registered;\r\n    }\r\n  \r\n    function getRealEstatePayda(uint realEstateId) public view returns(uint){\r\n        return realEstateMap[realEstateId].payda;\r\n    }\r\n\r\n    function getRealEstateInfo(uint realEstateId) public view returns(string memory) {\r\n        return realEstateMap[realEstateId].mahalle;\r\n    }\r\n\r\n    function getId(string memory mahalle) public pure returns(uint){\r\n        uint realEstateId=uint(keccak256(bytes(mahalle)));\r\n        return realEstateId;\r\n    }\r\n    \r\n}",
  "sourcePath": "D:\\Ethereum Projects\\DAWithEth\\truffle-project\\contracts\\RealEstate.sol",
  "compiler": {
    "name": "solc",
    "version": "0.8.14+commit.80d49f37.Emscripten.clang"
  },
  "schemaVersion": "3.4.11",
  "updatedAt": "2023-01-09T18:25:34.962Z",
  "networkType": "ethereum",
  "devdoc": {
    "kind": "dev",
    "methods": {},
    "version": 1
  },
  "userdoc": {
    "kind": "user",
    "methods": {},
    "version": 1
  }
}