{
  "contractName": "RealEstateOwnerRelation",
  "abi": [
    {
      "inputs": [
        {
          "internalType": "address",
          "name": "realEstateContractAdd",
          "type": "address"
        },
        {
          "internalType": "address",
          "name": "ownerContractAdd",
          "type": "address"
        }
      ],
      "stateMutability": "nonpayable",
      "type": "constructor"
    },
    {
      "anonymous": false,
      "inputs": [
        {
          "indexed": false,
          "internalType": "uint256",
          "name": "realEstateId",
          "type": "uint256"
        },
        {
          "indexed": false,
          "internalType": "uint256",
          "name": "hisseId",
          "type": "uint256"
        },
        {
          "indexed": false,
          "internalType": "address",
          "name": "owner",
          "type": "address"
        }
      ],
      "name": "NewHisseAddedToRealEstate",
      "type": "event"
    },
    {
      "anonymous": false,
      "inputs": [
        {
          "indexed": false,
          "internalType": "uint256",
          "name": "realEstateId",
          "type": "uint256"
        },
        {
          "indexed": false,
          "internalType": "uint256",
          "name": "hisseId",
          "type": "uint256"
        },
        {
          "indexed": false,
          "internalType": "address",
          "name": "owner",
          "type": "address"
        }
      ],
      "name": "NewHisseAndRealEstateAdded",
      "type": "event"
    },
    {
      "anonymous": false,
      "inputs": [
        {
          "indexed": false,
          "internalType": "uint256",
          "name": "realEstateId",
          "type": "uint256"
        },
        {
          "indexed": false,
          "internalType": "uint256",
          "name": "hisseId",
          "type": "uint256"
        },
        {
          "indexed": false,
          "internalType": "address",
          "name": "owner",
          "type": "address"
        }
      ],
      "name": "OwnerHissePayAdded",
      "type": "event"
    },
    {
      "anonymous": false,
      "inputs": [
        {
          "indexed": false,
          "internalType": "uint256",
          "name": "hiseId",
          "type": "uint256"
        },
        {
          "indexed": false,
          "internalType": "address",
          "name": "oldOwner",
          "type": "address"
        },
        {
          "indexed": false,
          "internalType": "address",
          "name": "newOwner",
          "type": "address"
        }
      ],
      "name": "OwnerShipChanged",
      "type": "event"
    },
    {
      "inputs": [
        {
          "internalType": "uint256",
          "name": "",
          "type": "uint256"
        }
      ],
      "name": "hisseIdHisseMap",
      "outputs": [
        {
          "internalType": "uint256",
          "name": "pay",
          "type": "uint256"
        },
        {
          "internalType": "uint256",
          "name": "realEstateId",
          "type": "uint256"
        },
        {
          "internalType": "address",
          "name": "ownerAdd",
          "type": "address"
        },
        {
          "internalType": "bool",
          "name": "registered",
          "type": "bool"
        }
      ],
      "stateMutability": "view",
      "type": "function"
    },
    {
      "inputs": [
        {
          "internalType": "address",
          "name": "",
          "type": "address"
        },
        {
          "internalType": "uint256",
          "name": "",
          "type": "uint256"
        }
      ],
      "name": "ownerHisseIdMap",
      "outputs": [
        {
          "internalType": "uint256",
          "name": "",
          "type": "uint256"
        }
      ],
      "stateMutability": "view",
      "type": "function"
    },
    {
      "inputs": [
        {
          "internalType": "uint256",
          "name": "",
          "type": "uint256"
        }
      ],
      "name": "realEstateIdHisseMap",
      "outputs": [
        {
          "internalType": "bool",
          "name": "registered",
          "type": "bool"
        },
        {
          "internalType": "uint256",
          "name": "payda",
          "type": "uint256"
        },
        {
          "internalType": "uint256",
          "name": "toplamHisseMiktar",
          "type": "uint256"
        }
      ],
      "stateMutability": "view",
      "type": "function"
    },
    {
      "inputs": [
        {
          "internalType": "uint256",
          "name": "realEstateId",
          "type": "uint256"
        }
      ],
      "name": "testOwnerShip",
      "outputs": [],
      "stateMutability": "nonpayable",
      "type": "function"
    },
    {
      "inputs": [
        {
          "internalType": "address",
          "name": "ownAdd",
          "type": "address"
        },
        {
          "internalType": "uint256",
          "name": "realEstateId",
          "type": "uint256"
        },
        {
          "internalType": "uint256",
          "name": "_hisse",
          "type": "uint256"
        }
      ],
      "name": "addOwnerShip",
      "outputs": [],
      "stateMutability": "nonpayable",
      "type": "function"
    },
    {
      "inputs": [
        {
          "internalType": "address",
          "name": "ownAdd",
          "type": "address"
        },
        {
          "internalType": "uint256[]",
          "name": "hisseIdList",
          "type": "uint256[]"
        }
      ],
      "name": "getOwnerHisseId",
      "outputs": [
        {
          "internalType": "uint256",
          "name": "",
          "type": "uint256"
        }
      ],
      "stateMutability": "view",
      "type": "function"
    },
    {
      "inputs": [
        {
          "internalType": "uint256",
          "name": "hisseId",
          "type": "uint256"
        },
        {
          "internalType": "address",
          "name": "newOwner",
          "type": "address"
        }
      ],
      "name": "changeOwnerShip",
      "outputs": [],
      "stateMutability": "nonpayable",
      "type": "function"
    },
    {
      "inputs": [
        {
          "internalType": "uint256",
          "name": "hisseId",
          "type": "uint256"
        },
        {
          "internalType": "address",
          "name": "ownAdd",
          "type": "address"
        }
      ],
      "name": "hisseSatisaCikabilirMi",
      "outputs": [
        {
          "internalType": "bool",
          "name": "",
          "type": "bool"
        }
      ],
      "stateMutability": "view",
      "type": "function"
    },
    {
      "inputs": [
        {
          "internalType": "address",
          "name": "ownAdd",
          "type": "address"
        }
      ],
      "name": "getOwnerHisseIds",
      "outputs": [
        {
          "internalType": "uint256[]",
          "name": "",
          "type": "uint256[]"
        }
      ],
      "stateMutability": "view",
      "type": "function"
    },
    {
      "inputs": [
        {
          "internalType": "address",
          "name": "ownAdd",
          "type": "address"
        }
      ],
      "name": "getHisseInfos",
      "outputs": [
        {
          "components": [
            {
              "internalType": "uint256",
              "name": "pay",
              "type": "uint256"
            },
            {
              "internalType": "uint256",
              "name": "realEstateId",
              "type": "uint256"
            },
            {
              "internalType": "address",
              "name": "ownerAdd",
              "type": "address"
            },
            {
              "internalType": "bool",
              "name": "registered",
              "type": "bool"
            }
          ],
          "internalType": "struct RealEstateOwnerRelation.Hisse[]",
          "name": "",
          "type": "tuple[]"
        }
      ],
      "stateMutability": "view",
      "type": "function"
    }
  ],
  "bytecode": "0x60806040523480156200001157600080fd5b5060405162001d2d38038062001d2d83398181016040528101906200003791906200012a565b806000806101000a81548173ffffffffffffffffffffffffffffffffffffffff021916908373ffffffffffffffffffffffffffffffffffffffff16021790555081600160006101000a81548173ffffffffffffffffffffffffffffffffffffffff021916908373ffffffffffffffffffffffffffffffffffffffff160217905550505062000171565b600080fd5b600073ffffffffffffffffffffffffffffffffffffffff82169050919050565b6000620000f282620000c5565b9050919050565b6200010481620000e5565b81146200011057600080fd5b50565b6000815190506200012481620000f9565b92915050565b60008060408385031215620001445762000143620000c0565b5b6000620001548582860162000113565b9250506020620001678582860162000113565b9150509250929050565b611bac80620001816000396000f3fe608060405234801561001057600080fd5b506004361061009e5760003560e01c806389642c541161006657806389642c54146101825780639c3ead74146101b2578063a4ddba4e146101e2578063af825c99146101fe578063d4ad4e921461021a5761009e565b80632a9421fd146100a357806331e0e081146100d65780634f54463d1461010657806350538329146101365780637764679814610166575b600080fd5b6100bd60048036038101906100b89190611181565b61024c565b6040516100cd9493929190611219565b60405180910390f35b6100f060048036038101906100eb919061128a565b6102a9565b6040516100fd91906113e8565b60405180910390f35b610120600480360381019061011b919061128a565b61049b565b60405161012d91906114b9565b60405180910390f35b610150600480360381019061014b91906114db565b610532565b60405161015d919061151b565b60405180910390f35b610180600480360381019061017b9190611536565b610563565b005b61019c60048036038101906101979190611536565b61087f565b6040516101a99190611576565b60405180910390f35b6101cc60048036038101906101c791906116ea565b610970565b6040516101d9919061151b565b60405180910390f35b6101fc60048036038101906101f79190611746565b610a33565b005b61021860048036038101906102139190611181565b610efa565b005b610234600480360381019061022f9190611181565b610f09565b60405161024393929190611799565b60405180910390f35b60046020528060005260406000206000915090508060000154908060010154908060020160009054906101000a900473ffffffffffffffffffffffffffffffffffffffff16908060020160149054906101000a900460ff16905084565b60606000600260008473ffffffffffffffffffffffffffffffffffffffff1673ffffffffffffffffffffffffffffffffffffffff16815260200190815260200160002080548060200260200160405190810160405280929190818152602001828054801561033657602002820191906000526020600020905b815481526020019060010190808311610322575b505050505090506000815167ffffffffffffffff81111561035a576103596115a7565b5b60405190808252806020026020018201604052801561039357816020015b610380611088565b8152602001906001900390816103785790505b50905060005b825181101561049057600460008483815181106103b9576103b86117d0565b5b6020026020010151815260200190815260200160002060405180608001604052908160008201548152602001600182015481526020016002820160009054906101000a900473ffffffffffffffffffffffffffffffffffffffff1673ffffffffffffffffffffffffffffffffffffffff1673ffffffffffffffffffffffffffffffffffffffff1681526020016002820160149054906101000a900460ff161515151581525050828281518110610472576104716117d0565b5b602002602001018190525080806104889061182e565b915050610399565b508092505050919050565b6060600260008373ffffffffffffffffffffffffffffffffffffffff1673ffffffffffffffffffffffffffffffffffffffff16815260200190815260200160002080548060200260200160405190810160405280929190818152602001828054801561052657602002820191906000526020600020905b815481526020019060010190808311610512575b50505050509050919050565b6002602052816000526040600020818154811061054e57600080fd5b90600052602060002001600091509150505481565b60006004600084815260200190815260200160002060405180608001604052908160008201548152602001600182015481526020016002820160009054906101000a900473ffffffffffffffffffffffffffffffffffffffff1673ffffffffffffffffffffffffffffffffffffffff1673ffffffffffffffffffffffffffffffffffffffff1681526020016002820160149054906101000a900460ff1615151515815250509050806060015161064e576040517f08c379a0000000000000000000000000000000000000000000000000000000008152600401610645906118d3565b60405180910390fd5b816004600085815260200190815260200160002060020160006101000a81548173ffffffffffffffffffffffffffffffffffffffff021916908373ffffffffffffffffffffffffffffffffffffffff1602179055506000600260003373ffffffffffffffffffffffffffffffffffffffff1673ffffffffffffffffffffffffffffffffffffffff16815260200190815260200160002080548060200260200160405190810160405280929190818152602001828054801561072e57602002820191906000526020600020905b81548152602001906001019080831161071a575b5050505050905060005b81518110156107d75784828281518110610755576107546117d0565b5b6020026020010151036107c4576000600260003373ffffffffffffffffffffffffffffffffffffffff1673ffffffffffffffffffffffffffffffffffffffff16815260200190815260200160002082815481106107b5576107b46117d0565b5b90600052602060002001819055505b80806107cf9061182e565b915050610738565b50600260008473ffffffffffffffffffffffffffffffffffffffff1673ffffffffffffffffffffffffffffffffffffffff1681526020019081526020016000208490806001815401808255809150506001900390600052602060002001600090919091909150557ffc76d50164923258b51ee1079ccd1cf163bdb590fae88254a27a68fc01338db3843385604051610871939291906118f3565b60405180910390a150505050565b6000806004600085815260200190815260200160002060405180608001604052908160008201548152602001600182015481526020016002820160009054906101000a900473ffffffffffffffffffffffffffffffffffffffff1673ffffffffffffffffffffffffffffffffffffffff1673ffffffffffffffffffffffffffffffffffffffff1681526020016002820160149054906101000a900460ff16151515158152505090508060600151801561096757508273ffffffffffffffffffffffffffffffffffffffff16816040015173ffffffffffffffffffffffffffffffffffffffff16145b91505092915050565b600080600090505b8251811015610a27576000838281518110610996576109956117d0565b5b602002602001015190508473ffffffffffffffffffffffffffffffffffffffff166004600083815260200190815260200160002060020160009054906101000a900473ffffffffffffffffffffffffffffffffffffffff1673ffffffffffffffffffffffffffffffffffffffff1603610a13578092505050610a2d565b508080610a1f9061182e565b915050610978565b50600090505b92915050565b600160009054906101000a900473ffffffffffffffffffffffffffffffffffffffff1673ffffffffffffffffffffffffffffffffffffffff16635a8f6713836040518263ffffffff1660e01b8152600401610a8e919061151b565b602060405180830381865afa158015610aab573d6000803e3d6000fd5b505050506040513d601f19601f82011682018060405250810190610acf9190611956565b610b0e576040517f08c379a0000000000000000000000000000000000000000000000000000000008152600401610b05906119f5565b60405180910390fd5b60006003600084815260200190815260200160002090506000600160009054906101000a900473ffffffffffffffffffffffffffffffffffffffff1673ffffffffffffffffffffffffffffffffffffffff16633c7422df856040518263ffffffff1660e01b8152600401610b82919061151b565b602060405180830381865afa158015610b9f573d6000803e3d6000fd5b505050506040513d601f19601f82011682018060405250810190610bc39190611a2a565b90508160000160009054906101000a900460ff1615610e0a5780838360020154610bed9190611a57565b1115610c2e576040517f08c379a0000000000000000000000000000000000000000000000000000000008152600401610c2590611b1f565b60405180910390fd5b6000610c8c8684600301805480602002602001604051908101604052809291908181526020018280548015610c8257602002820191906000526020600020905b815481526020019060010190808311610c6e575b5050505050610970565b905060008114610d035783600460008381526020019081526020016000206000016000828254610cbc9190611a57565b925050819055507fa535b07ae14ec98ab82ef3c685c41230285069dc563422605395fd18dae8c892858288604051610cf693929190611b3f565b60405180910390a1610d7a565b6000610d10858789610f40565b9050836003018190806001815401808255809150506001900390600052602060002001600090919091909150557f778bb28ce6a290175f1e03453e3a37af08496ccc1b12ef02a0fe761cdabd810d868289604051610d7093929190611b3f565b60405180910390a1505b83836002016000828254610d8e9190611a57565b9250508190555082600360008781526020019081526020016000206000820160009054906101000a900460ff168160000160006101000a81548160ff02191690831515021790555060018201548160010155600282015481600201556003820181600301908054610e009291906110c8565b5090505050610ef3565b80831115610e4d576040517f08c379a0000000000000000000000000000000000000000000000000000000008152600401610e4490611b1f565b60405180910390fd5b80826001018190555082826002018190555060018260000160006101000a81548160ff0219169083151502179055506000610e89848688610f40565b9050826003018190806001815401808255809150506001900390600052602060002001600090919091909150557f29d7d5587f61e146ad3cfca1aae3910d412e0701ee1b55b46d9d3837f4dc693d858288604051610ee993929190611b3f565b60405180910390a1505b5050505050565b610f0633826001610a33565b50565b60036020528060005260406000206000915090508060000160009054906101000a900460ff16908060010154908060020154905083565b600080429050600060405180608001604052808781526020018681526020018573ffffffffffffffffffffffffffffffffffffffff1681526020016001151581525090508060046000848152602001908152602001600020600082015181600001556020820151816001015560408201518160020160006101000a81548173ffffffffffffffffffffffffffffffffffffffff021916908373ffffffffffffffffffffffffffffffffffffffff16021790555060608201518160020160146101000a81548160ff021916908315150217905550905050600260008573ffffffffffffffffffffffffffffffffffffffff1673ffffffffffffffffffffffffffffffffffffffff16815260200190815260200160002082908060018154018082558091505060019003906000526020600020016000909190919091505581925050509392505050565b60405180608001604052806000815260200160008152602001600073ffffffffffffffffffffffffffffffffffffffff1681526020016000151581525090565b8280548282559060005260206000209081019282156111095760005260206000209182015b828111156111085782548255916001019190600101906110ed565b5b509050611116919061111a565b5090565b5b8082111561113357600081600090555060010161111b565b5090565b6000604051905090565b600080fd5b600080fd5b6000819050919050565b61115e8161114b565b811461116957600080fd5b50565b60008135905061117b81611155565b92915050565b60006020828403121561119757611196611141565b5b60006111a58482850161116c565b91505092915050565b6111b78161114b565b82525050565b600073ffffffffffffffffffffffffffffffffffffffff82169050919050565b60006111e8826111bd565b9050919050565b6111f8816111dd565b82525050565b60008115159050919050565b611213816111fe565b82525050565b600060808201905061122e60008301876111ae565b61123b60208301866111ae565b61124860408301856111ef565b611255606083018461120a565b95945050505050565b611267816111dd565b811461127257600080fd5b50565b6000813590506112848161125e565b92915050565b6000602082840312156112a05761129f611141565b5b60006112ae84828501611275565b91505092915050565b600081519050919050565b600082825260208201905092915050565b6000819050602082019050919050565b6112ec8161114b565b82525050565b6112fb816111dd565b82525050565b61130a816111fe565b82525050565b60808201600082015161132660008501826112e3565b50602082015161133960208501826112e3565b50604082015161134c60408501826112f2565b50606082015161135f6060850182611301565b50505050565b60006113718383611310565b60808301905092915050565b6000602082019050919050565b6000611395826112b7565b61139f81856112c2565b93506113aa836112d3565b8060005b838110156113db5781516113c28882611365565b97506113cd8361137d565b9250506001810190506113ae565b5085935050505092915050565b60006020820190508181036000830152611402818461138a565b905092915050565b600081519050919050565b600082825260208201905092915050565b6000819050602082019050919050565b600061144283836112e3565b60208301905092915050565b6000602082019050919050565b60006114668261140a565b6114708185611415565b935061147b83611426565b8060005b838110156114ac5781516114938882611436565b975061149e8361144e565b92505060018101905061147f565b5085935050505092915050565b600060208201905081810360008301526114d3818461145b565b905092915050565b600080604083850312156114f2576114f1611141565b5b600061150085828601611275565b92505060206115118582860161116c565b9150509250929050565b600060208201905061153060008301846111ae565b92915050565b6000806040838503121561154d5761154c611141565b5b600061155b8582860161116c565b925050602061156c85828601611275565b9150509250929050565b600060208201905061158b600083018461120a565b92915050565b600080fd5b6000601f19601f8301169050919050565b7f4e487b7100000000000000000000000000000000000000000000000000000000600052604160045260246000fd5b6115df82611596565b810181811067ffffffffffffffff821117156115fe576115fd6115a7565b5b80604052505050565b6000611611611137565b905061161d82826115d6565b919050565b600067ffffffffffffffff82111561163d5761163c6115a7565b5b602082029050602081019050919050565b600080fd5b600061166661166184611622565b611607565b905080838252602082019050602084028301858111156116895761168861164e565b5b835b818110156116b2578061169e888261116c565b84526020840193505060208101905061168b565b5050509392505050565b600082601f8301126116d1576116d0611591565b5b81356116e1848260208601611653565b91505092915050565b6000806040838503121561170157611700611141565b5b600061170f85828601611275565b925050602083013567ffffffffffffffff8111156117305761172f611146565b5b61173c858286016116bc565b9150509250929050565b60008060006060848603121561175f5761175e611141565b5b600061176d86828701611275565b935050602061177e8682870161116c565b925050604061178f8682870161116c565b9150509250925092565b60006060820190506117ae600083018661120a565b6117bb60208301856111ae565b6117c860408301846111ae565b949350505050565b7f4e487b7100000000000000000000000000000000000000000000000000000000600052603260045260246000fd5b7f4e487b7100000000000000000000000000000000000000000000000000000000600052601160045260246000fd5b60006118398261114b565b91507fffffffffffffffffffffffffffffffffffffffffffffffffffffffffffffffff820361186b5761186a6117ff565b5b600182019050919050565b600082825260208201905092915050565b7f48697373652062756c756e616d61646900000000000000000000000000000000600082015250565b60006118bd601083611876565b91506118c882611887565b602082019050919050565b600060208201905081810360008301526118ec816118b0565b9050919050565b600060608201905061190860008301866111ae565b61191560208301856111ef565b61192260408301846111ef565b949350505050565b611933816111fe565b811461193e57600080fd5b50565b6000815190506119508161192a565b92915050565b60006020828403121561196c5761196b611141565b5b600061197a84828501611941565b91505092915050565b7f5265616c2065737461746520646f6573206e6f7420657869737420696e20746860008201527f652073797374656d000000000000000000000000000000000000000000000000602082015250565b60006119df602883611876565b91506119ea82611983565b604082019050919050565b60006020820190508181036000830152611a0e816119d2565b9050919050565b600081519050611a2481611155565b92915050565b600060208284031215611a4057611a3f611141565b5b6000611a4e84828501611a15565b91505092915050565b6000611a628261114b565b9150611a6d8361114b565b9250827fffffffffffffffffffffffffffffffffffffffffffffffffffffffffffffffff03821115611aa257611aa16117ff565b5b828201905092915050565b7f4e6f206d6f7265207368617265686f6c646572732063616e206265206164646560008201527f6420746f20746865207265616c20657374617465000000000000000000000000602082015250565b6000611b09603483611876565b9150611b1482611aad565b604082019050919050565b60006020820190508181036000830152611b3881611afc565b9050919050565b6000606082019050611b5460008301866111ae565b611b6160208301856111ae565b611b6e60408301846111ef565b94935050505056fea26469706673582212205c207c13e17ec2a380c2f3a03a1b3fcb500cc112739d97d4c5b8c2cab1c5048a64736f6c634300080e0033",
  "immutableReferences": {},
  "source": "// SPDX-License-Identifier: UNLICENSED\r\npragma solidity ^0.8.0;\r\n\r\nimport \"./Owner.sol\";\r\nimport \"./RealEstate.sol\";\r\n\r\ncontract RealEstateOwnerRelation {\r\n    Owner ownerContract;\r\n    RealEstate realEstateContract;\r\n\r\n    struct Hisse {\r\n        uint pay;  \r\n       //string edinmeSebebi; //TODO enum\r\n        //uint edinmeZamani;\r\n        uint realEstateId;\r\n        address ownerAdd;\r\n        bool registered;\r\n    }\r\n\r\n    struct RealEstateHisse{\r\n        bool registered;\r\n        uint payda;\r\n        uint toplamHisseMiktar;\r\n        uint [] hisseIdList;        \r\n    }\r\n \r\n    mapping(address => uint []) public ownerHisseIdMap;\r\n    \r\n    mapping(uint => RealEstateHisse) public realEstateIdHisseMap;\r\n    mapping(uint => Hisse) public hisseIdHisseMap;\r\n\r\n    event NewHisseAndRealEstateAdded(uint realEstateId, uint hisseId, address owner);\r\n    event OwnerHissePayAdded(uint realEstateId, uint hisseId, address owner);\r\n    event NewHisseAddedToRealEstate(uint realEstateId, uint hisseId, address owner);\r\n    event OwnerShipChanged(uint hiseId, address oldOwner, address newOwner);\r\n\r\n    \r\n    constructor(address realEstateContractAdd, address ownerContractAdd)  {\r\n        ownerContract=Owner(ownerContractAdd);\r\n        realEstateContract=RealEstate(realEstateContractAdd);\r\n    }\r\n\r\n    function testOwnerShip(uint realEstateId) public{\r\n        addOwnerShip(msg.sender, realEstateId, 1);        \r\n    }\r\n    \r\n    function addOwnerShip(address ownAdd, uint realEstateId, uint _hisse) public {\r\n        //TODO sadece admin yapabilsin\r\n        //require(ownerContract.isOwnerRegistered(ownAdd), \"Owner does not exist in system\");\r\n        require(realEstateContract.isRealEstateRegisted(realEstateId), \"Real estate does not exist in the system\");   \r\n         \r\n        RealEstateHisse storage realEstateHisse = realEstateIdHisseMap[realEstateId];\r\n        uint payda = realEstateContract.getRealEstatePayda(realEstateId);\r\n        if(realEstateHisse.registered){\r\n            require(realEstateHisse.toplamHisseMiktar + _hisse <= payda, \"No more shareholders can be added to the real estate\");\r\n            uint hisseId = getOwnerHisseId(ownAdd, realEstateHisse.hisseIdList);\r\n            if(hisseId != 0){\r\n                hisseIdHisseMap[hisseId].pay += _hisse;\r\n                emit OwnerHissePayAdded(realEstateId, hisseId, ownAdd);\r\n            }else{\r\n                uint newHisseId=hisseOlustur(_hisse, realEstateId, ownAdd);\r\n                realEstateHisse.hisseIdList.push(newHisseId);\r\n                emit NewHisseAddedToRealEstate(realEstateId, newHisseId, ownAdd);\r\n            }\r\n            realEstateHisse.toplamHisseMiktar += _hisse;\r\n            realEstateIdHisseMap[realEstateId] = realEstateHisse;\r\n        }else{\r\n            require(_hisse <= payda,  \"No more shareholders can be added to the real estate\");\r\n            realEstateHisse.payda = payda;\r\n            realEstateHisse.toplamHisseMiktar= _hisse;\r\n            realEstateHisse.registered =true;\r\n            uint newHisseId=hisseOlustur(_hisse, realEstateId, ownAdd);\r\n            realEstateHisse.hisseIdList.push(newHisseId);\r\n            emit NewHisseAndRealEstateAdded(realEstateId, newHisseId, ownAdd);\r\n        }\r\n        \r\n    }\r\n\r\n    function hisseOlustur(uint _hisse, uint realEstateId, address ownAdd) private returns (uint) {\r\n        uint newHisseId=block.timestamp;\r\n        Hisse memory newHisse = Hisse(_hisse, realEstateId, ownAdd, true);\r\n        hisseIdHisseMap[newHisseId] = newHisse;            \r\n        ownerHisseIdMap[ownAdd].push(newHisseId);   \r\n        return newHisseId;\r\n    }\r\n\r\n    function getOwnerHisseId(address ownAdd, uint[] memory hisseIdList) public view returns(uint) {\r\n        for(uint i = 0; i< hisseIdList.length; i++){\r\n            uint hisseId = hisseIdList[i];\r\n            if(hisseIdHisseMap[hisseId].ownerAdd == ownAdd){\r\n                return hisseId;\r\n            }\r\n        }\r\n        return 0;\r\n    }\r\n\r\n    function changeOwnerShip(uint hisseId, address newOwner) public {\r\n        Hisse memory hisse  = hisseIdHisseMap[hisseId];\r\n        require(hisse.registered, \"Hisse bulunamadi\");\r\n        //islem yapan admin mi\r\n\r\n        hisseIdHisseMap[hisseId].ownerAdd = newOwner;\r\n        \r\n        uint[] memory hisseIdList = ownerHisseIdMap[msg.sender];\r\n        for(uint i = 0; i<hisseIdList.length; i++){\r\n            if(hisseIdList[i] == hisseId){\r\n                ownerHisseIdMap[msg.sender][i] = 0;\r\n            } \r\n        }\r\n        ownerHisseIdMap[newOwner].push(hisseId);\r\n        \r\n        emit OwnerShipChanged(hisseId, msg.sender, newOwner);\r\n    }\r\n\r\n    function hisseSatisaCikabilirMi(uint hisseId, address ownAdd) public view returns(bool){\r\n        Hisse memory hisse  = hisseIdHisseMap[hisseId];\r\n        return hisse.registered && hisse.ownerAdd == ownAdd;\r\n    }\r\n\r\n    function getOwnerHisseIds(address ownAdd) public view returns(uint[] memory){\r\n        return ownerHisseIdMap[ownAdd];\r\n    }\r\n\r\n    function getHisseInfos(address ownAdd) public view returns (Hisse[] memory){\r\n           uint [] memory hisseIds = ownerHisseIdMap[ownAdd];\r\n           Hisse [] memory result = new Hisse[](hisseIds.length);\r\n           for(uint i = 0; i< hisseIds.length; i++){\r\n               result[i] = hisseIdHisseMap[hisseIds[i]];\r\n           }\r\n           return result;            \r\n    }\r\n\r\n}",
  "sourcePath": "D:\\Ethereum Projects\\DAWithEth\\truffle-project\\contracts\\RealEstateOwnerRelation.sol",
  "compiler": {
    "name": "solc",
    "version": "0.8.14+commit.80d49f37.Emscripten.clang"
  },
  "schemaVersion": "3.4.11",
  "updatedAt": "2023-01-08T10:32:05.425Z",
  "devdoc": {
    "kind": "dev",
    "methods": {},
    "version": 1
  },
  "userdoc": {
    "kind": "user",
    "methods": {},
    "version": 1
  }
}