{
  "contractName": "RealEstateOwnerRelation",
  "abi": [
    {
      "inputs": [
        {
          "internalType": "address",
          "name": "ownerContractAdd",
          "type": "address"
        },
        {
          "internalType": "address",
          "name": "realEstateContractAdd",
          "type": "address"
        }
      ],
      "stateMutability": "nonpayable",
      "type": "constructor"
    },
    {
      "inputs": [
        {
          "internalType": "address",
          "name": "ownAdd",
          "type": "address"
        },
        {
          "internalType": "uint256",
          "name": "realEstateId",
          "type": "uint256"
        },
        {
          "internalType": "uint256",
          "name": "_hisse",
          "type": "uint256"
        }
      ],
      "name": "addOwnerShip",
      "outputs": [],
      "stateMutability": "nonpayable",
      "type": "function"
    }
  ],
  "bytecode": "0x608060405234801561001057600080fd5b50604051610bd7380380610bd78339818101604052810190610032919061011d565b816000806101000a81548173ffffffffffffffffffffffffffffffffffffffff021916908373ffffffffffffffffffffffffffffffffffffffff16021790555080600160006101000a81548173ffffffffffffffffffffffffffffffffffffffff021916908373ffffffffffffffffffffffffffffffffffffffff160217905550505061015d565b600080fd5b600073ffffffffffffffffffffffffffffffffffffffff82169050919050565b60006100ea826100bf565b9050919050565b6100fa816100df565b811461010557600080fd5b50565b600081519050610117816100f1565b92915050565b60008060408385031215610134576101336100ba565b5b600061014285828601610108565b925050602061015385828601610108565b9150509250929050565b610a6b8061016c6000396000f3fe608060405234801561001057600080fd5b506004361061002b5760003560e01c8063a4ddba4e14610030575b600080fd5b61004a600480360381019061004591906106be565b61004c565b005b60008054906101000a900473ffffffffffffffffffffffffffffffffffffffff1673ffffffffffffffffffffffffffffffffffffffff16632967d1d8846040518263ffffffff1660e01b81526004016100a59190610720565b602060405180830381865afa1580156100c2573d6000803e3d6000fd5b505050506040513d601f19601f820116820180604052508101906100e69190610773565b15610126576040517f08c379a000000000000000000000000000000000000000000000000000000000815260040161011d906107fd565b60405180910390fd5b600160009054906101000a900473ffffffffffffffffffffffffffffffffffffffff1673ffffffffffffffffffffffffffffffffffffffff16635a8f6713836040518263ffffffff1660e01b8152600401610181919061082c565b602060405180830381865afa15801561019e573d6000803e3d6000fd5b505050506040513d601f19601f820116820180604052508101906101c29190610773565b15610202576040517f08c379a00000000000000000000000000000000000000000000000000000000081526004016101f9906108b9565b60405180910390fd5b60008284604051602001610217929190610942565b6040516020818303038152906040528051906020012060001c905060006003600085815260200190815260200160002090506000600160009054906101000a900473ffffffffffffffffffffffffffffffffffffffff1673ffffffffffffffffffffffffffffffffffffffff16633c7422df866040518263ffffffff1660e01b81526004016102a6919061082c565b602060405180830381865afa1580156102c3573d6000803e3d6000fd5b505050506040513d601f19601f820116820180604052508101906102e79190610983565b90508160000160009054906101000a900460ff16156104fd5760008260020160008873ffffffffffffffffffffffffffffffffffffffff1673ffffffffffffffffffffffffffffffffffffffff16815260200190815260200160002060405180608001604052908160008201548152602001600182015481526020016002820160009054906101000a900473ffffffffffffffffffffffffffffffffffffffff1673ffffffffffffffffffffffffffffffffffffffff1673ffffffffffffffffffffffffffffffffffffffff1681526020016002820160149054906101000a900460ff16151515158152505090508060600151156103fd5784816000018181516103f191906109df565b915081815250506104f7565b60405180608001604052808681526020018781526020018873ffffffffffffffffffffffffffffffffffffffff168152602001600115158152508360020160008973ffffffffffffffffffffffffffffffffffffffff1673ffffffffffffffffffffffffffffffffffffffff168152602001908152602001600020600082015181600001556020820151816001015560408201518160020160006101000a81548173ffffffffffffffffffffffffffffffffffffffff021916908373ffffffffffffffffffffffffffffffffffffffff16021790555060608201518160020160146101000a81548160ff0219169083151502179055509050505b5061061d565b80826001018190555060018260000160006101000a81548160ff02191690831515021790555060405180608001604052808581526020018681526020018773ffffffffffffffffffffffffffffffffffffffff168152602001600115158152508260020160008873ffffffffffffffffffffffffffffffffffffffff1673ffffffffffffffffffffffffffffffffffffffff168152602001908152602001600020600082015181600001556020820151816001015560408201518160020160006101000a81548173ffffffffffffffffffffffffffffffffffffffff021916908373ffffffffffffffffffffffffffffffffffffffff16021790555060608201518160020160146101000a81548160ff0219169083151502179055509050505b505050505050565b600080fd5b600073ffffffffffffffffffffffffffffffffffffffff82169050919050565b60006106558261062a565b9050919050565b6106658161064a565b811461067057600080fd5b50565b6000813590506106828161065c565b92915050565b6000819050919050565b61069b81610688565b81146106a657600080fd5b50565b6000813590506106b881610692565b92915050565b6000806000606084860312156106d7576106d6610625565b5b60006106e586828701610673565b93505060206106f6868287016106a9565b9250506040610707868287016106a9565b9150509250925092565b61071a8161064a565b82525050565b60006020820190506107356000830184610711565b92915050565b60008115159050919050565b6107508161073b565b811461075b57600080fd5b50565b60008151905061076d81610747565b92915050565b60006020828403121561078957610788610625565b5b60006107978482850161075e565b91505092915050565b600082825260208201905092915050565b7f4f776e657220646f6573206e6f7420657869737420696e2073797374656d0000600082015250565b60006107e7601e836107a0565b91506107f2826107b1565b602082019050919050565b60006020820190508181036000830152610816816107da565b9050919050565b61082681610688565b82525050565b6000602082019050610841600083018461081d565b92915050565b7f5265616c2065737461746520646f6573206e6f7420657869737420696e20746860008201527f652073797374656d000000000000000000000000000000000000000000000000602082015250565b60006108a36028836107a0565b91506108ae82610847565b604082019050919050565b600060208201905081810360008301526108d281610896565b9050919050565b6000819050919050565b6108f46108ef82610688565b6108d9565b82525050565b60008160601b9050919050565b6000610912826108fa565b9050919050565b600061092482610907565b9050919050565b61093c6109378261064a565b610919565b82525050565b600061094e82856108e3565b60208201915061095e828461092b565b6014820191508190509392505050565b60008151905061097d81610692565b92915050565b60006020828403121561099957610998610625565b5b60006109a78482850161096e565b91505092915050565b7f4e487b7100000000000000000000000000000000000000000000000000000000600052601160045260246000fd5b60006109ea82610688565b91506109f583610688565b9250827fffffffffffffffffffffffffffffffffffffffffffffffffffffffffffffffff03821115610a2a57610a296109b0565b5b82820190509291505056fea26469706673582212205de584a7e592d7a5603daead0e48a78fd1dece0ed1dd062adc830c6cc026189564736f6c634300080e0033",
  "immutableReferences": {},
  "source": "// SPDX-License-Identifier: UNLICENSED\r\npragma solidity ^0.8.0;\r\n\r\nimport \"./Owner.sol\";\r\nimport \"./RealEstate.sol\";\r\n\r\ncontract RealEstateOwnerRelation {\r\n    Owner ownerContract;\r\n    RealEstate realEstateContract;\r\n\r\n    struct Hisse {\r\n        uint pay;  \r\n       //string edinmeSebebi; //TODO enum\r\n        //uint edinmeZamani;\r\n        uint realEstateId;\r\n        address ownerAdd;\r\n        bool registered;\r\n    }\r\n\r\n    struct RealEstateHisse{\r\n        bool registered;\r\n        uint payda;\r\n        mapping(address =>Hisse) hisseMap;\r\n    }\r\n    struct OwnerRealEstateMapping {\r\n        uint [] hisseIdList; \r\n    }\r\n\r\n    mapping(address => OwnerRealEstateMapping) ownerMap;\r\n\r\n    mapping(uint => RealEstateHisse) realEstateIdHisseMap;\r\n\r\n    constructor(address ownerContractAdd, address realEstateContractAdd)  {\r\n        ownerContract=Owner(ownerContractAdd);\r\n        realEstateContract=RealEstate(realEstateContractAdd);\r\n    }\r\n\r\n    \r\n    function addOwnerShip(address ownAdd, uint realEstateId, uint _hisse) public{\r\n        //TODO sadece admin yapabilsin\r\n        require(!ownerContract.isOwnerRegistered(ownAdd), \"Owner does not exist in system\");\r\n        require(!realEstateContract.isRealEstateRegisted(realEstateId), \"Real estate does not exist in the system\");   \r\n        \r\n         uint hisseId=uint(keccak256(abi.encodePacked(realEstateId,ownAdd)));\r\n         \r\n        RealEstateHisse storage realEstateHisse = realEstateIdHisseMap[realEstateId];\r\n        uint payda = realEstateContract.getRealEstatePayda(realEstateId);\r\n      \r\n      if(realEstateHisse.registered){\r\n           Hisse memory hisse =realEstateHisse.hisseMap[ownAdd]; \r\n           if(hisse.registered){\r\n                 hisse.pay += _hisse;\r\n           }else{\r\n             realEstateHisse.hisseMap[ownAdd] = Hisse(_hisse,realEstateId, ownAdd, true);\r\n           }\r\n      }else{\r\n        realEstateHisse.payda = payda;\r\n        realEstateHisse.registered =true;\r\n        realEstateHisse.hisseMap[ownAdd] = Hisse(_hisse,realEstateId, ownAdd, true);\r\n      }\r\n    }\r\n\r\n\r\n\r\n}",
  "sourcePath": "D:\\Ethereum Projects\\DAWithEth\\truffle-project\\contracts\\RealEstateOwnerRelation.sol",
  "compiler": {
    "name": "solc",
    "version": "0.8.14+commit.80d49f37.Emscripten.clang"
  },
  "schemaVersion": "3.4.11",
  "updatedAt": "2022-12-28T18:22:55.616Z",
  "networkType": "ethereum",
  "devdoc": {
    "kind": "dev",
    "methods": {},
    "version": 1
  },
  "userdoc": {
    "kind": "user",
    "methods": {},
    "version": 1
  }
}