{
  "contractName": "RealEstateSaleAd",
  "abi": [
    {
      "inputs": [
        {
          "internalType": "address",
          "name": "ownerContractAdd",
          "type": "address"
        },
        {
          "internalType": "address",
          "name": "realOwnRelAddress",
          "type": "address"
        },
        {
          "internalType": "address",
          "name": "realEstateAddress",
          "type": "address"
        }
      ],
      "stateMutability": "nonpayable",
      "type": "constructor"
    },
    {
      "anonymous": false,
      "inputs": [
        {
          "indexed": false,
          "internalType": "uint256",
          "name": "ilanId",
          "type": "uint256"
        },
        {
          "indexed": false,
          "internalType": "address",
          "name": "saticiId",
          "type": "address"
        },
        {
          "indexed": false,
          "internalType": "address",
          "name": "aliciId",
          "type": "address"
        }
      ],
      "name": "aliciIcinKilitlendi",
      "type": "event"
    },
    {
      "anonymous": false,
      "inputs": [
        {
          "indexed": false,
          "internalType": "address",
          "name": "alici",
          "type": "address"
        },
        {
          "indexed": false,
          "internalType": "uint256",
          "name": "ilanId",
          "type": "uint256"
        },
        {
          "indexed": false,
          "internalType": "uint256",
          "name": "miktar",
          "type": "uint256"
        }
      ],
      "name": "alicisistemHesabinaParaAktardi",
      "type": "event"
    },
    {
      "anonymous": false,
      "inputs": [
        {
          "indexed": false,
          "internalType": "uint256",
          "name": "ilanId",
          "type": "uint256"
        },
        {
          "indexed": false,
          "internalType": "uint256",
          "name": "yeniSatisFiyat",
          "type": "uint256"
        },
        {
          "indexed": false,
          "internalType": "address",
          "name": "saticiId",
          "type": "address"
        }
      ],
      "name": "fiyatDegistir",
      "type": "event"
    },
    {
      "anonymous": false,
      "inputs": [
        {
          "indexed": false,
          "internalType": "uint256",
          "name": "hisseId",
          "type": "uint256"
        },
        {
          "indexed": false,
          "internalType": "address",
          "name": "saticiId",
          "type": "address"
        },
        {
          "indexed": false,
          "internalType": "uint256",
          "name": "ilanId",
          "type": "uint256"
        },
        {
          "indexed": false,
          "internalType": "uint256",
          "name": "fiyat",
          "type": "uint256"
        }
      ],
      "name": "ilanOlusturuldu",
      "type": "event"
    },
    {
      "anonymous": false,
      "inputs": [
        {
          "indexed": false,
          "internalType": "address",
          "name": "saticiId",
          "type": "address"
        },
        {
          "indexed": false,
          "internalType": "uint256",
          "name": "ilanId",
          "type": "uint256"
        }
      ],
      "name": "ilanYayindanKaldirildi",
      "type": "event"
    },
    {
      "anonymous": false,
      "inputs": [
        {
          "indexed": false,
          "internalType": "uint256",
          "name": "ilanId",
          "type": "uint256"
        }
      ],
      "name": "kilitKaldirildiWithAliciOnayi",
      "type": "event"
    },
    {
      "anonymous": false,
      "inputs": [
        {
          "indexed": false,
          "internalType": "uint256",
          "name": "ilanId",
          "type": "uint256"
        }
      ],
      "name": "kilitKaldirildiWithSaticiOnayi",
      "type": "event"
    },
    {
      "inputs": [
        {
          "internalType": "uint256",
          "name": "",
          "type": "uint256"
        }
      ],
      "name": "adIdLUT",
      "outputs": [
        {
          "internalType": "uint256",
          "name": "",
          "type": "uint256"
        }
      ],
      "stateMutability": "view",
      "type": "function"
    },
    {
      "inputs": [
        {
          "internalType": "uint256",
          "name": "",
          "type": "uint256"
        }
      ],
      "name": "adIdMap",
      "outputs": [
        {
          "internalType": "uint256",
          "name": "hisseId",
          "type": "uint256"
        },
        {
          "internalType": "address",
          "name": "satici",
          "type": "address"
        },
        {
          "internalType": "address",
          "name": "alici",
          "type": "address"
        },
        {
          "internalType": "enum NotaryContractBase.State",
          "name": "state",
          "type": "uint8"
        },
        {
          "internalType": "uint256",
          "name": "rayicBedeli",
          "type": "uint256"
        },
        {
          "internalType": "uint256",
          "name": "fiyat",
          "type": "uint256"
        },
        {
          "internalType": "bool",
          "name": "borcuVarMi",
          "type": "bool"
        },
        {
          "internalType": "uint256",
          "name": "adIdLUTIndex",
          "type": "uint256"
        },
        {
          "internalType": "bool",
          "name": "aliciParaTransferi",
          "type": "bool"
        },
        {
          "internalType": "bool",
          "name": "saticiParaTransferi",
          "type": "bool"
        }
      ],
      "stateMutability": "view",
      "type": "function"
    },
    {
      "inputs": [
        {
          "internalType": "uint256",
          "name": "",
          "type": "uint256"
        }
      ],
      "name": "hisseIdAdIdMap",
      "outputs": [
        {
          "internalType": "uint256",
          "name": "",
          "type": "uint256"
        }
      ],
      "stateMutability": "view",
      "type": "function"
    },
    {
      "inputs": [
        {
          "internalType": "address",
          "name": "",
          "type": "address"
        },
        {
          "internalType": "uint256",
          "name": "",
          "type": "uint256"
        }
      ],
      "name": "ownerAdIdListMap",
      "outputs": [
        {
          "internalType": "uint256",
          "name": "",
          "type": "uint256"
        }
      ],
      "stateMutability": "view",
      "type": "function"
    },
    {
      "inputs": [
        {
          "internalType": "uint256",
          "name": "hisseId",
          "type": "uint256"
        },
        {
          "internalType": "uint256",
          "name": "rayicBedeli",
          "type": "uint256"
        },
        {
          "internalType": "uint256",
          "name": "satisFiyat",
          "type": "uint256"
        },
        {
          "internalType": "bool",
          "name": "borcuVarMi",
          "type": "bool"
        }
      ],
      "name": "ilanOlustur",
      "outputs": [],
      "stateMutability": "nonpayable",
      "type": "function"
    },
    {
      "inputs": [
        {
          "internalType": "uint256",
          "name": "ilanId",
          "type": "uint256"
        }
      ],
      "name": "ilanYayindanKaldir",
      "outputs": [],
      "stateMutability": "nonpayable",
      "type": "function"
    },
    {
      "inputs": [
        {
          "internalType": "uint256",
          "name": "ilanId",
          "type": "uint256"
        },
        {
          "internalType": "address",
          "name": "aliciAdd",
          "type": "address"
        },
        {
          "internalType": "uint256",
          "name": "fiyat",
          "type": "uint256"
        }
      ],
      "name": "aliciIcinKilitle",
      "outputs": [],
      "stateMutability": "nonpayable",
      "type": "function"
    },
    {
      "inputs": [
        {
          "internalType": "uint256",
          "name": "ilanId",
          "type": "uint256"
        },
        {
          "internalType": "uint256",
          "name": "newfiyat",
          "type": "uint256"
        }
      ],
      "name": "changeSatisFiyat",
      "outputs": [],
      "stateMutability": "nonpayable",
      "type": "function"
    },
    {
      "inputs": [
        {
          "internalType": "uint256",
          "name": "ilanId",
          "type": "uint256"
        }
      ],
      "name": "kilitKaldirWithAliciOnayi",
      "outputs": [],
      "stateMutability": "nonpayable",
      "type": "function"
    },
    {
      "inputs": [
        {
          "internalType": "uint256",
          "name": "ilanId",
          "type": "uint256"
        }
      ],
      "name": "kilitKaldirWithSaticiOnayi",
      "outputs": [],
      "stateMutability": "nonpayable",
      "type": "function"
    },
    {
      "inputs": [
        {
          "internalType": "address",
          "name": "ownAdd",
          "type": "address"
        }
      ],
      "name": "getUserAds",
      "outputs": [
        {
          "components": [
            {
              "internalType": "uint256",
              "name": "hisseId",
              "type": "uint256"
            },
            {
              "internalType": "address",
              "name": "satici",
              "type": "address"
            },
            {
              "internalType": "address",
              "name": "alici",
              "type": "address"
            },
            {
              "internalType": "enum NotaryContractBase.State",
              "name": "state",
              "type": "uint8"
            },
            {
              "internalType": "uint256",
              "name": "rayicBedeli",
              "type": "uint256"
            },
            {
              "internalType": "uint256",
              "name": "fiyat",
              "type": "uint256"
            },
            {
              "internalType": "bool",
              "name": "borcuVarMi",
              "type": "bool"
            },
            {
              "internalType": "uint256",
              "name": "adIdLUTIndex",
              "type": "uint256"
            },
            {
              "internalType": "bool",
              "name": "aliciParaTransferi",
              "type": "bool"
            },
            {
              "internalType": "bool",
              "name": "saticiParaTransferi",
              "type": "bool"
            }
          ],
          "internalType": "struct NotaryContractBase.Advertisement[]",
          "name": "",
          "type": "tuple[]"
        }
      ],
      "stateMutability": "view",
      "type": "function"
    },
    {
      "inputs": [
        {
          "internalType": "uint256",
          "name": "ilanId",
          "type": "uint256"
        }
      ],
      "name": "ilanaTeklifVerilebilirMi",
      "outputs": [
        {
          "internalType": "bool",
          "name": "",
          "type": "bool"
        }
      ],
      "stateMutability": "view",
      "type": "function"
    },
    {
      "inputs": [
        {
          "internalType": "uint256",
          "name": "ilanId",
          "type": "uint256"
        }
      ],
      "name": "getIlanSatici",
      "outputs": [
        {
          "internalType": "address",
          "name": "",
          "type": "address"
        }
      ],
      "stateMutability": "view",
      "type": "function"
    },
    {
      "inputs": [
        {
          "internalType": "uint256",
          "name": "ilanId",
          "type": "uint256"
        }
      ],
      "name": "alicidanParaAlindi",
      "outputs": [],
      "stateMutability": "nonpayable",
      "type": "function"
    },
    {
      "inputs": [
        {
          "internalType": "uint256",
          "name": "ilanId",
          "type": "uint256"
        }
      ],
      "name": "saticidanTapuHarciAlindi",
      "outputs": [],
      "stateMutability": "nonpayable",
      "type": "function"
    },
    {
      "inputs": [],
      "name": "getAliciIcinKitlenenIlanlar",
      "outputs": [
        {
          "components": [
            {
              "internalType": "uint256",
              "name": "ilanId",
              "type": "uint256"
            },
            {
              "components": [
                {
                  "internalType": "uint256",
                  "name": "hisseId",
                  "type": "uint256"
                },
                {
                  "internalType": "address",
                  "name": "satici",
                  "type": "address"
                },
                {
                  "internalType": "address",
                  "name": "alici",
                  "type": "address"
                },
                {
                  "internalType": "enum NotaryContractBase.State",
                  "name": "state",
                  "type": "uint8"
                },
                {
                  "internalType": "uint256",
                  "name": "rayicBedeli",
                  "type": "uint256"
                },
                {
                  "internalType": "uint256",
                  "name": "fiyat",
                  "type": "uint256"
                },
                {
                  "internalType": "bool",
                  "name": "borcuVarMi",
                  "type": "bool"
                },
                {
                  "internalType": "uint256",
                  "name": "adIdLUTIndex",
                  "type": "uint256"
                },
                {
                  "internalType": "bool",
                  "name": "aliciParaTransferi",
                  "type": "bool"
                },
                {
                  "internalType": "bool",
                  "name": "saticiParaTransferi",
                  "type": "bool"
                }
              ],
              "internalType": "struct NotaryContractBase.Advertisement",
              "name": "ad",
              "type": "tuple"
            }
          ],
          "internalType": "struct NotaryContractBase.AdDto[]",
          "name": "",
          "type": "tuple[]"
        }
      ],
      "stateMutability": "view",
      "type": "function"
    },
    {
      "inputs": [
        {
          "internalType": "address",
          "name": "ownAdd",
          "type": "address"
        }
      ],
      "name": "getUserAssets",
      "outputs": [
        {
          "components": [
            {
              "internalType": "uint256",
              "name": "hisseId",
              "type": "uint256"
            },
            {
              "components": [
                {
                  "internalType": "uint256",
                  "name": "pay",
                  "type": "uint256"
                },
                {
                  "internalType": "uint256",
                  "name": "realEstateId",
                  "type": "uint256"
                },
                {
                  "internalType": "address",
                  "name": "ownerAdd",
                  "type": "address"
                },
                {
                  "internalType": "bool",
                  "name": "registered",
                  "type": "bool"
                }
              ],
              "internalType": "struct NotaryContractBase.Hisse",
              "name": "hisse",
              "type": "tuple"
            },
            {
              "internalType": "uint256",
              "name": "ilanId",
              "type": "uint256"
            },
            {
              "components": [
                {
                  "internalType": "uint256",
                  "name": "hisseId",
                  "type": "uint256"
                },
                {
                  "internalType": "address",
                  "name": "satici",
                  "type": "address"
                },
                {
                  "internalType": "address",
                  "name": "alici",
                  "type": "address"
                },
                {
                  "internalType": "enum NotaryContractBase.State",
                  "name": "state",
                  "type": "uint8"
                },
                {
                  "internalType": "uint256",
                  "name": "rayicBedeli",
                  "type": "uint256"
                },
                {
                  "internalType": "uint256",
                  "name": "fiyat",
                  "type": "uint256"
                },
                {
                  "internalType": "bool",
                  "name": "borcuVarMi",
                  "type": "bool"
                },
                {
                  "internalType": "uint256",
                  "name": "adIdLUTIndex",
                  "type": "uint256"
                },
                {
                  "internalType": "bool",
                  "name": "aliciParaTransferi",
                  "type": "bool"
                },
                {
                  "internalType": "bool",
                  "name": "saticiParaTransferi",
                  "type": "bool"
                }
              ],
              "internalType": "struct NotaryContractBase.Advertisement",
              "name": "ad",
              "type": "tuple"
            },
            {
              "components": [
                {
                  "internalType": "uint256",
                  "name": "realEstateId",
                  "type": "uint256"
                },
                {
                  "internalType": "string",
                  "name": "mahalle",
                  "type": "string"
                },
                {
                  "internalType": "uint256",
                  "name": "payda",
                  "type": "uint256"
                },
                {
                  "internalType": "bool",
                  "name": "registered",
                  "type": "bool"
                }
              ],
              "internalType": "struct NotaryContractBase.RealEstateData",
              "name": "realEstateData",
              "type": "tuple"
            }
          ],
          "internalType": "struct NotaryContractBase.HisseAdData[]",
          "name": "",
          "type": "tuple[]"
        }
      ],
      "stateMutability": "view",
      "type": "function"
    },
    {
      "inputs": [],
      "name": "getAllAds",
      "outputs": [
        {
          "components": [
            {
              "internalType": "uint256",
              "name": "hisseId",
              "type": "uint256"
            },
            {
              "components": [
                {
                  "internalType": "uint256",
                  "name": "pay",
                  "type": "uint256"
                },
                {
                  "internalType": "uint256",
                  "name": "realEstateId",
                  "type": "uint256"
                },
                {
                  "internalType": "address",
                  "name": "ownerAdd",
                  "type": "address"
                },
                {
                  "internalType": "bool",
                  "name": "registered",
                  "type": "bool"
                }
              ],
              "internalType": "struct NotaryContractBase.Hisse",
              "name": "hisse",
              "type": "tuple"
            },
            {
              "internalType": "uint256",
              "name": "ilanId",
              "type": "uint256"
            },
            {
              "components": [
                {
                  "internalType": "uint256",
                  "name": "hisseId",
                  "type": "uint256"
                },
                {
                  "internalType": "address",
                  "name": "satici",
                  "type": "address"
                },
                {
                  "internalType": "address",
                  "name": "alici",
                  "type": "address"
                },
                {
                  "internalType": "enum NotaryContractBase.State",
                  "name": "state",
                  "type": "uint8"
                },
                {
                  "internalType": "uint256",
                  "name": "rayicBedeli",
                  "type": "uint256"
                },
                {
                  "internalType": "uint256",
                  "name": "fiyat",
                  "type": "uint256"
                },
                {
                  "internalType": "bool",
                  "name": "borcuVarMi",
                  "type": "bool"
                },
                {
                  "internalType": "uint256",
                  "name": "adIdLUTIndex",
                  "type": "uint256"
                },
                {
                  "internalType": "bool",
                  "name": "aliciParaTransferi",
                  "type": "bool"
                },
                {
                  "internalType": "bool",
                  "name": "saticiParaTransferi",
                  "type": "bool"
                }
              ],
              "internalType": "struct NotaryContractBase.Advertisement",
              "name": "ad",
              "type": "tuple"
            },
            {
              "components": [
                {
                  "internalType": "uint256",
                  "name": "realEstateId",
                  "type": "uint256"
                },
                {
                  "internalType": "string",
                  "name": "mahalle",
                  "type": "string"
                },
                {
                  "internalType": "uint256",
                  "name": "payda",
                  "type": "uint256"
                },
                {
                  "internalType": "bool",
                  "name": "registered",
                  "type": "bool"
                }
              ],
              "internalType": "struct NotaryContractBase.RealEstateData",
              "name": "realEstateData",
              "type": "tuple"
            }
          ],
          "internalType": "struct NotaryContractBase.HisseAdData[]",
          "name": "",
          "type": "tuple[]"
        }
      ],
      "stateMutability": "view",
      "type": "function"
    },
    {
      "inputs": [
        {
          "internalType": "uint256",
          "name": "ilanId",
          "type": "uint256"
        }
      ],
      "name": "getHisseAdDataById",
      "outputs": [
        {
          "components": [
            {
              "internalType": "uint256",
              "name": "hisseId",
              "type": "uint256"
            },
            {
              "components": [
                {
                  "internalType": "uint256",
                  "name": "pay",
                  "type": "uint256"
                },
                {
                  "internalType": "uint256",
                  "name": "realEstateId",
                  "type": "uint256"
                },
                {
                  "internalType": "address",
                  "name": "ownerAdd",
                  "type": "address"
                },
                {
                  "internalType": "bool",
                  "name": "registered",
                  "type": "bool"
                }
              ],
              "internalType": "struct NotaryContractBase.Hisse",
              "name": "hisse",
              "type": "tuple"
            },
            {
              "internalType": "uint256",
              "name": "ilanId",
              "type": "uint256"
            },
            {
              "components": [
                {
                  "internalType": "uint256",
                  "name": "hisseId",
                  "type": "uint256"
                },
                {
                  "internalType": "address",
                  "name": "satici",
                  "type": "address"
                },
                {
                  "internalType": "address",
                  "name": "alici",
                  "type": "address"
                },
                {
                  "internalType": "enum NotaryContractBase.State",
                  "name": "state",
                  "type": "uint8"
                },
                {
                  "internalType": "uint256",
                  "name": "rayicBedeli",
                  "type": "uint256"
                },
                {
                  "internalType": "uint256",
                  "name": "fiyat",
                  "type": "uint256"
                },
                {
                  "internalType": "bool",
                  "name": "borcuVarMi",
                  "type": "bool"
                },
                {
                  "internalType": "uint256",
                  "name": "adIdLUTIndex",
                  "type": "uint256"
                },
                {
                  "internalType": "bool",
                  "name": "aliciParaTransferi",
                  "type": "bool"
                },
                {
                  "internalType": "bool",
                  "name": "saticiParaTransferi",
                  "type": "bool"
                }
              ],
              "internalType": "struct NotaryContractBase.Advertisement",
              "name": "ad",
              "type": "tuple"
            },
            {
              "components": [
                {
                  "internalType": "uint256",
                  "name": "realEstateId",
                  "type": "uint256"
                },
                {
                  "internalType": "string",
                  "name": "mahalle",
                  "type": "string"
                },
                {
                  "internalType": "uint256",
                  "name": "payda",
                  "type": "uint256"
                },
                {
                  "internalType": "bool",
                  "name": "registered",
                  "type": "bool"
                }
              ],
              "internalType": "struct NotaryContractBase.RealEstateData",
              "name": "realEstateData",
              "type": "tuple"
            }
          ],
          "internalType": "struct NotaryContractBase.HisseAdData",
          "name": "",
          "type": "tuple"
        }
      ],
      "stateMutability": "view",
      "type": "function"
    },
    {
      "inputs": [
        {
          "internalType": "uint256",
          "name": "ilanId",
          "type": "uint256"
        }
      ],
      "name": "isAdYayinda",
      "outputs": [
        {
          "internalType": "bool",
          "name": "",
          "type": "bool"
        }
      ],
      "stateMutability": "view",
      "type": "function"
    }
  ],
  "bytecode": "0x608060405260006007553480156200001657600080fd5b5060405162004d3d38038062004d3d83398181016040528101906200003c919062000171565b82600160006101000a81548173ffffffffffffffffffffffffffffffffffffffff021916908373ffffffffffffffffffffffffffffffffffffffff160217905550816000806101000a81548173ffffffffffffffffffffffffffffffffffffffff021916908373ffffffffffffffffffffffffffffffffffffffff16021790555080600260006101000a81548173ffffffffffffffffffffffffffffffffffffffff021916908373ffffffffffffffffffffffffffffffffffffffff160217905550505050620001cd565b600080fd5b600073ffffffffffffffffffffffffffffffffffffffff82169050919050565b600062000139826200010c565b9050919050565b6200014b816200012c565b81146200015757600080fd5b50565b6000815190506200016b8162000140565b92915050565b6000806000606084860312156200018d576200018c62000107565b5b60006200019d868287016200015a565b9350506020620001b0868287016200015a565b9250506040620001c3868287016200015a565b9150509250925092565b614b6080620001dd6000396000f3fe608060405234801561001057600080fd5b506004361061012c5760003560e01c80638f7df5fe116100ad578063cca1baa111610071578063cca1baa114610396578063da05ae33146103b2578063dc589fad146103e2578063e7f6b3a0146103fe578063ebed05921461041a5761012c565b80638f7df5fe146102c35780639206e938146102f3578063af54c7101461032c578063b79f44231461035c578063ba1468461461037a5761012c565b806349a2c6b0116100f457806349a2c6b0146101fb5780634dff90a91461022b5780635e1fac6c14610247578063765ff061146102775780638c193ff5146102a75761012c565b8063157c2a40146101315780633505d12f1461014d578063384154f01461017d5780633fa020e9146101ad578063407e17d6146101dd575b600080fd5b61014b6004803603810190610146919061363a565b610436565b005b6101676004803603810190610162919061363a565b6105e7565b6040516101749190613676565b60405180910390f35b6101976004803603810190610192919061363a565b6105ff565b6040516101a49190613676565b60405180910390f35b6101c760048036038101906101c2919061363a565b610617565b6040516101d491906136ac565b60405180910390f35b6101e561066b565b6040516101f29190613949565b60405180910390f35b61021560048036038101906102109190613997565b6109cd565b6040516102229190613676565b60405180910390f35b610245600480360381019061024091906139d7565b6109fe565b005b610261600480360381019061025c919061363a565b610d23565b60405161026e9190613bf3565b60405180910390f35b610291600480360381019061028c9190613c15565b61102f565b60405161029e9190613d7c565b60405180910390f35b6102c160048036038101906102bc919061363a565b611536565b005b6102dd60048036038101906102d8919061363a565b6118b0565b6040516102ea9190613dad565b60405180910390f35b61030d6004803603810190610308919061363a565b6118f0565b6040516103239a99989796959493929190613dd7565b60405180910390f35b6103466004803603810190610341919061363a565b6119b8565b60405161035391906136ac565b60405180910390f35b610364611b70565b6040516103719190613d7c565b60405180910390f35b610394600480360381019061038f919061363a565b611f28565b005b6103b060048036038101906103ab919061363a565b6120ce565b005b6103cc60048036038101906103c79190613c15565b612448565b6040516103d99190613f23565b60405180910390f35b6103fc60048036038101906103f79190613f71565b61291b565b005b6104186004803603810190610413919061363a565b612dbd565b005b610434600480360381019061042f9190613fd8565b612f64565b005b3373ffffffffffffffffffffffffffffffffffffffff166003600083815260200190815260200160002060010160009054906101000a900473ffffffffffffffffffffffffffffffffffffffff1673ffffffffffffffffffffffffffffffffffffffff16146104da576040517f08c379a00000000000000000000000000000000000000000000000000000000081526004016104d19061409b565b60405180910390fd5b600160058111156104ee576104ed613743565b5b6003600083815260200190815260200160002060020160149054906101000a900460ff16600581111561052457610523613743565b5b14610564576040517f08c379a000000000000000000000000000000000000000000000000000000000815260040161055b9061412d565b60405180910390fd5b600380600083815260200190815260200160002060020160146101000a81548160ff0219169083600581111561059d5761059c613743565b5b02179055506105ab81613266565b7f403a6f9792692b3ee502fa20caf6bb8fd6dcf2af50f28f5745b111e6170b051433826040516105dc92919061414d565b60405180910390a150565b60046020528060005260406000206000915090505481565b60066020528060005260406000206000915090505481565b60006001600581111561062d5761062c613743565b5b6003600084815260200190815260200160002060020160149054906101000a900460ff16600581111561066357610662613743565b5b149050919050565b6060600160009054906101000a900473ffffffffffffffffffffffffffffffffffffffff1673ffffffffffffffffffffffffffffffffffffffff166324d7806c336040518263ffffffff1660e01b81526004016106c89190613dad565b602060405180830381865afa1580156106e5573d6000803e3d6000fd5b505050506040513d601f19601f82011682018060405250810190610709919061418b565b610748576040517f08c379a000000000000000000000000000000000000000000000000000000000815260040161073f90614204565b60405180910390fd5b600060075467ffffffffffffffff81111561076657610765614224565b5b60405190808252806020026020018201604052801561079f57816020015b61078c61348e565b8152602001906001900390816107845790505b5090506000805b6007548110156109c45760006006600083815260200190815260200160002054905060006003600083815260200190815260200160002060405180610140016040529081600082015481526020016001820160009054906101000a900473ffffffffffffffffffffffffffffffffffffffff1673ffffffffffffffffffffffffffffffffffffffff1673ffffffffffffffffffffffffffffffffffffffff1681526020016002820160009054906101000a900473ffffffffffffffffffffffffffffffffffffffff1673ffffffffffffffffffffffffffffffffffffffff1673ffffffffffffffffffffffffffffffffffffffff1681526020016002820160149054906101000a900460ff1660058111156108c4576108c3613743565b5b60058111156108d6576108d5613743565b5b815260200160038201548152602001600482015481526020016005820160009054906101000a900460ff16151515158152602001600682015481526020016007820160009054906101000a900460ff161515151581526020016007820160019054906101000a900460ff16151515158152505090506002600581111561095f5761095e613743565b5b8160600151600581111561097657610975613743565b5b036109af576040518060400160405280838152602001828152508585815181106109a3576109a2614253565b5b60200260200101819052505b505080806109bc906142b1565b9150506107a6565b50819250505090565b600560205281600052604060002081815481106109e957600080fd5b90600052602060002001600091509150505481565b60006003600085815260200190815260200160002060405180610140016040529081600082015481526020016001820160009054906101000a900473ffffffffffffffffffffffffffffffffffffffff1673ffffffffffffffffffffffffffffffffffffffff1673ffffffffffffffffffffffffffffffffffffffff1681526020016002820160009054906101000a900473ffffffffffffffffffffffffffffffffffffffff1673ffffffffffffffffffffffffffffffffffffffff1673ffffffffffffffffffffffffffffffffffffffff1681526020016002820160149054906101000a900460ff166005811115610afa57610af9613743565b5b6005811115610b0c57610b0b613743565b5b815260200160038201548152602001600482015481526020016005820160009054906101000a900460ff16151515158152602001600682015481526020016007820160009054906101000a900460ff161515151581526020016007820160019054906101000a900460ff161515151581525050905060016005811115610b9557610b94613743565b5b81606001516005811115610bac57610bab613743565b5b14610bec576040517f08c379a0000000000000000000000000000000000000000000000000000000008152600401610be39061412d565b60405180910390fd5b8181608001511115610c33576040517f08c379a0000000000000000000000000000000000000000000000000000000008152600401610c2a9061436b565b60405180910390fd5b60026003600086815260200190815260200160002060020160146101000a81548160ff02191690836005811115610c6d57610c6c613743565b5b0217905550826003600086815260200190815260200160002060020160006101000a81548173ffffffffffffffffffffffffffffffffffffffff021916908373ffffffffffffffffffffffffffffffffffffffff1602179055508160036000868152602001908152602001600020600401819055507f1479338b27bb727a6d6bdbb8f7554b67addade705ff18a6a4e9f52b7c26f8caf843385604051610d159392919061438b565b60405180910390a150505050565b610d2b6134ae565b60006003600084815260200190815260200160002060405180610140016040529081600082015481526020016001820160009054906101000a900473ffffffffffffffffffffffffffffffffffffffff1673ffffffffffffffffffffffffffffffffffffffff1673ffffffffffffffffffffffffffffffffffffffff1681526020016002820160009054906101000a900473ffffffffffffffffffffffffffffffffffffffff1673ffffffffffffffffffffffffffffffffffffffff1673ffffffffffffffffffffffffffffffffffffffff1681526020016002820160149054906101000a900460ff166005811115610e2757610e26613743565b5b6005811115610e3957610e38613743565b5b815260200160038201548152602001600482015481526020016005820160009054906101000a900460ff16151515158152602001600682015481526020016007820160009054906101000a900460ff161515151581526020016007820160019054906101000a900460ff161515151581525050905060008060009054906101000a900473ffffffffffffffffffffffffffffffffffffffff1673ffffffffffffffffffffffffffffffffffffffff1663948c0d8e83600001516040518263ffffffff1660e01b8152600401610f0e9190613676565b608060405180830381865afa158015610f2b573d6000803e3d6000fd5b505050506040513d601f19601f82011682018060405250810190610f4f91906144ba565b90506000600260009054906101000a900473ffffffffffffffffffffffffffffffffffffffff1673ffffffffffffffffffffffffffffffffffffffff16639f8188b383602001516040518263ffffffff1660e01b8152600401610fb29190613676565b600060405180830381865afa158015610fcf573d6000803e3d6000fd5b505050506040513d6000823e3d601f19601f82011682018060405250810190610ff89190614626565b90506040518060a0016040528084600001518152602001838152602001868152602001848152602001828152509350505050919050565b606060008060009054906101000a900473ffffffffffffffffffffffffffffffffffffffff1673ffffffffffffffffffffffffffffffffffffffff166351fe436a846040518263ffffffff1660e01b815260040161108d9190613dad565b602060405180830381865afa1580156110aa573d6000803e3d6000fd5b505050506040513d601f19601f820116820180604052508101906110ce919061466f565b905060008167ffffffffffffffff8111156110ec576110eb614224565b5b60405190808252806020026020018201604052801561112557816020015b6111126134ae565b81526020019060019003908161110a5790505b5090506000805b8381101561152a5760008060009054906101000a900473ffffffffffffffffffffffffffffffffffffffff1673ffffffffffffffffffffffffffffffffffffffff1663794cc53388846040518363ffffffff1660e01b815260040161119292919061414d565b602060405180830381865afa1580156111af573d6000803e3d6000fd5b505050506040513d601f19601f820116820180604052508101906111d3919061466f565b9050600081146115165760008060009054906101000a900473ffffffffffffffffffffffffffffffffffffffff1673ffffffffffffffffffffffffffffffffffffffff1663948c0d8e836040518263ffffffff1660e01b81526004016112399190613676565b608060405180830381865afa158015611256573d6000803e3d6000fd5b505050506040513d601f19601f8201168201806040525081019061127a91906144ba565b90506000600260009054906101000a900473ffffffffffffffffffffffffffffffffffffffff1673ffffffffffffffffffffffffffffffffffffffff16639f8188b383602001516040518263ffffffff1660e01b81526004016112dd9190613676565b600060405180830381865afa1580156112fa573d6000803e3d6000fd5b505050506040513d6000823e3d601f19601f820116820180604052508101906113239190614626565b905060006004600085815260200190815260200160002054905060006003600083815260200190815260200160002060405180610140016040529081600082015481526020016001820160009054906101000a900473ffffffffffffffffffffffffffffffffffffffff1673ffffffffffffffffffffffffffffffffffffffff1673ffffffffffffffffffffffffffffffffffffffff1681526020016002820160009054906101000a900473ffffffffffffffffffffffffffffffffffffffff1673ffffffffffffffffffffffffffffffffffffffff1673ffffffffffffffffffffffffffffffffffffffff1681526020016002820160149054906101000a900460ff16600581111561143957611438613743565b5b600581111561144b5761144a613743565b5b815260200160038201548152602001600482015481526020016005820160009054906101000a900460ff16151515158152602001600682015481526020016007820160009054906101000a900460ff161515151581526020016007820160019054906101000a900460ff16151515158152505090506040518060a00160405280868152602001858152602001838152602001828152602001848152508888806114f3906142b1565b99508151811061150657611505614253565b5b6020026020010181905250505050505b508080611522906142b1565b91505061112c565b50819350505050919050565b600160009054906101000a900473ffffffffffffffffffffffffffffffffffffffff1673ffffffffffffffffffffffffffffffffffffffff166324d7806c336040518263ffffffff1660e01b81526004016115919190613dad565b602060405180830381865afa1580156115ae573d6000803e3d6000fd5b505050506040513d601f19601f820116820180604052508101906115d2919061418b565b611611576040517f08c379a000000000000000000000000000000000000000000000000000000000815260040161160890614204565b60405180910390fd5b60016003600083815260200190815260200160002060070160006101000a81548160ff02191690831515021790555060006003600083815260200190815260200160002060405180610140016040529081600082015481526020016001820160009054906101000a900473ffffffffffffffffffffffffffffffffffffffff1673ffffffffffffffffffffffffffffffffffffffff1673ffffffffffffffffffffffffffffffffffffffff1681526020016002820160009054906101000a900473ffffffffffffffffffffffffffffffffffffffff1673ffffffffffffffffffffffffffffffffffffffff1673ffffffffffffffffffffffffffffffffffffffff1681526020016002820160149054906101000a900460ff16600581111561173c5761173b613743565b5b600581111561174e5761174d613743565b5b815260200160038201548152602001600482015481526020016005820160009054906101000a900460ff16151515158152602001600682015481526020016007820160009054906101000a900460ff161515151581526020016007820160019054906101000a900460ff1615151515815250509050806101200151156118ac5760008054906101000a900473ffffffffffffffffffffffffffffffffffffffff1673ffffffffffffffffffffffffffffffffffffffff166377646798826000015183604001516040518363ffffffff1660e01b815260040161183192919061469c565b600060405180830381600087803b15801561184b57600080fd5b505af115801561185f573d6000803e3d6000fd5b5050505060046003600084815260200190815260200160002060020160146101000a81548160ff0219169083600581111561189d5761189c613743565b5b02179055506118ab82613266565b5b5050565b60006003600083815260200190815260200160002060010160009054906101000a900473ffffffffffffffffffffffffffffffffffffffff169050919050565b60036020528060005260406000206000915090508060000154908060010160009054906101000a900473ffffffffffffffffffffffffffffffffffffffff16908060020160009054906101000a900473ffffffffffffffffffffffffffffffffffffffff16908060020160149054906101000a900460ff16908060030154908060040154908060050160009054906101000a900460ff16908060060154908060070160009054906101000a900460ff16908060070160019054906101000a900460ff1690508a565b6000806003600084815260200190815260200160002060405180610140016040529081600082015481526020016001820160009054906101000a900473ffffffffffffffffffffffffffffffffffffffff1673ffffffffffffffffffffffffffffffffffffffff1673ffffffffffffffffffffffffffffffffffffffff1681526020016002820160009054906101000a900473ffffffffffffffffffffffffffffffffffffffff1673ffffffffffffffffffffffffffffffffffffffff1673ffffffffffffffffffffffffffffffffffffffff1681526020016002820160149054906101000a900460ff166005811115611ab557611ab4613743565b5b6005811115611ac757611ac6613743565b5b815260200160038201548152602001600482015481526020016005820160009054906101000a900460ff16151515158152602001600682015481526020016007820160009054906101000a900460ff161515151581526020016007820160019054906101000a900460ff161515151581525050905060016005811115611b5057611b4f613743565b5b81606001516005811115611b6757611b66613743565b5b14915050919050565b6060600060075467ffffffffffffffff811115611b9057611b8f614224565b5b604051908082528060200260200182016040528015611bc957816020015b611bb66134ae565b815260200190600190039081611bae5790505b50905060005b600754811015611f205760006006600083815260200190815260200160002054905060006003600083815260200190815260200160002060405180610140016040529081600082015481526020016001820160009054906101000a900473ffffffffffffffffffffffffffffffffffffffff1673ffffffffffffffffffffffffffffffffffffffff1673ffffffffffffffffffffffffffffffffffffffff1681526020016002820160009054906101000a900473ffffffffffffffffffffffffffffffffffffffff1673ffffffffffffffffffffffffffffffffffffffff1673ffffffffffffffffffffffffffffffffffffffff1681526020016002820160149054906101000a900460ff166005811115611ced57611cec613743565b5b6005811115611cff57611cfe613743565b5b815260200160038201548152602001600482015481526020016005820160009054906101000a900460ff16151515158152602001600682015481526020016007820160009054906101000a900460ff161515151581526020016007820160019054906101000a900460ff161515151581525050905060008060009054906101000a900473ffffffffffffffffffffffffffffffffffffffff1673ffffffffffffffffffffffffffffffffffffffff1663948c0d8e83600001516040518263ffffffff1660e01b8152600401611dd49190613676565b608060405180830381865afa158015611df1573d6000803e3d6000fd5b505050506040513d601f19601f82011682018060405250810190611e1591906144ba565b90506000600260009054906101000a900473ffffffffffffffffffffffffffffffffffffffff1673ffffffffffffffffffffffffffffffffffffffff16639f8188b383602001516040518263ffffffff1660e01b8152600401611e789190613676565b600060405180830381865afa158015611e95573d6000803e3d6000fd5b505050506040513d6000823e3d601f19601f82011682018060405250810190611ebe9190614626565b90506040518060a001604052808460000151815260200183815260200185815260200184815260200182815250868681518110611efe57611efd614253565b5b6020026020010181905250505050508080611f18906142b1565b915050611bcf565b508091505090565b6003600082815260200190815260200160002060010160009054906101000a900473ffffffffffffffffffffffffffffffffffffffff1673ffffffffffffffffffffffffffffffffffffffff163373ffffffffffffffffffffffffffffffffffffffff1614611fcc576040517f08c379a0000000000000000000000000000000000000000000000000000000008152600401611fc39061409b565b60405180910390fd5b600580811115611fdf57611fde613743565b5b6003600083815260200190815260200160002060020160149054906101000a900460ff16600581111561201557612014613743565b5b14612055576040517f08c379a000000000000000000000000000000000000000000000000000000000815260040161204c90614711565b60405180910390fd5b60016003600083815260200190815260200160002060020160146101000a81548160ff0219169083600581111561208f5761208e613743565b5b02179055507f1943ff8fe66129619ad45b43d7666b90f9f10c041d2d491444879220812d647d816040516120c39190613676565b60405180910390a150565b600160009054906101000a900473ffffffffffffffffffffffffffffffffffffffff1673ffffffffffffffffffffffffffffffffffffffff166324d7806c336040518263ffffffff1660e01b81526004016121299190613dad565b602060405180830381865afa158015612146573d6000803e3d6000fd5b505050506040513d601f19601f8201168201806040525081019061216a919061418b565b6121a9576040517f08c379a00000000000000000000000000000000000000000000000000000000081526004016121a090614204565b60405180910390fd5b60016003600083815260200190815260200160002060070160016101000a81548160ff02191690831515021790555060006003600083815260200190815260200160002060405180610140016040529081600082015481526020016001820160009054906101000a900473ffffffffffffffffffffffffffffffffffffffff1673ffffffffffffffffffffffffffffffffffffffff1673ffffffffffffffffffffffffffffffffffffffff1681526020016002820160009054906101000a900473ffffffffffffffffffffffffffffffffffffffff1673ffffffffffffffffffffffffffffffffffffffff1673ffffffffffffffffffffffffffffffffffffffff1681526020016002820160149054906101000a900460ff1660058111156122d4576122d3613743565b5b60058111156122e6576122e5613743565b5b815260200160038201548152602001600482015481526020016005820160009054906101000a900460ff16151515158152602001600682015481526020016007820160009054906101000a900460ff161515151581526020016007820160019054906101000a900460ff1615151515815250509050806101000151156124445760008054906101000a900473ffffffffffffffffffffffffffffffffffffffff1673ffffffffffffffffffffffffffffffffffffffff166377646798826000015183604001516040518363ffffffff1660e01b81526004016123c992919061469c565b600060405180830381600087803b1580156123e357600080fd5b505af11580156123f7573d6000803e3d6000fd5b5050505060046003600084815260200190815260200160002060020160146101000a81548160ff0219169083600581111561243557612434613743565b5b021790555061244382613266565b5b5050565b60606000600560008473ffffffffffffffffffffffffffffffffffffffff1673ffffffffffffffffffffffffffffffffffffffff1681526020019081526020016000208054806020026020016040519081016040528092919081815260200182805480156124d557602002820191906000526020600020905b8154815260200190600101908083116124c1575b505050505090506000815167ffffffffffffffff8111156124f9576124f8614224565b5b60405190808252806020026020018201604052801561253257816020015b61251f6134ef565b8152602001906001900390816125175790505b50905060005b82518110156129105760006003600085848151811061255a57612559614253565b5b6020026020010151815260200190815260200160002060405180610140016040529081600082015481526020016001820160009054906101000a900473ffffffffffffffffffffffffffffffffffffffff1673ffffffffffffffffffffffffffffffffffffffff1673ffffffffffffffffffffffffffffffffffffffff1681526020016002820160009054906101000a900473ffffffffffffffffffffffffffffffffffffffff1673ffffffffffffffffffffffffffffffffffffffff1673ffffffffffffffffffffffffffffffffffffffff1681526020016002820160149054906101000a900460ff16600581111561265757612656613743565b5b600581111561266957612668613743565b5b815260200160038201548152602001600482015481526020016005820160009054906101000a900460ff16151515158152602001600682015481526020016007820160009054906101000a900460ff161515151581526020016007820160019054906101000a900460ff1615151515815250509050600360058111156126f2576126f1613743565b5b8160600151600581111561270957612708613743565b5b14158061273f57506004600581111561272557612724613743565b5b8160600151600581111561273c5761273b613743565b5b14155b156128fc576003600085848151811061275b5761275a614253565b5b6020026020010151815260200190815260200160002060405180610140016040529081600082015481526020016001820160009054906101000a900473ffffffffffffffffffffffffffffffffffffffff1673ffffffffffffffffffffffffffffffffffffffff1673ffffffffffffffffffffffffffffffffffffffff1681526020016002820160009054906101000a900473ffffffffffffffffffffffffffffffffffffffff1673ffffffffffffffffffffffffffffffffffffffff1673ffffffffffffffffffffffffffffffffffffffff1681526020016002820160149054906101000a900460ff16600581111561285857612857613743565b5b600581111561286a57612869613743565b5b815260200160038201548152602001600482015481526020016005820160009054906101000a900460ff16151515158152602001600682015481526020016007820160009054906101000a900460ff161515151581526020016007820160019054906101000a900460ff1615151515815250508383815181106128f0576128ef614253565b5b60200260200101819052505b508080612908906142b1565b915050612538565b508092505050919050565b60008054906101000a900473ffffffffffffffffffffffffffffffffffffffff1673ffffffffffffffffffffffffffffffffffffffff166389642c5485336040518363ffffffff1660e01b815260040161297692919061469c565b602060405180830381865afa158015612993573d6000803e3d6000fd5b505050506040513d601f19601f820116820180604052508101906129b7919061418b565b6129f6576040517f08c379a00000000000000000000000000000000000000000000000000000000081526004016129ed906147a3565b60405180910390fd5b6000600460008681526020019081526020016000205414612a4c576040517f08c379a0000000000000000000000000000000000000000000000000000000008152600401612a4390614835565b60405180910390fd5b81831115612a8f576040517f08c379a0000000000000000000000000000000000000000000000000000000008152600401612a869061436b565b60405180910390fd5b8015612ad0576040517f08c379a0000000000000000000000000000000000000000000000000000000008152600401612ac7906148a1565b60405180910390fd5b600042905060006040518061014001604052808781526020013373ffffffffffffffffffffffffffffffffffffffff168152602001600073ffffffffffffffffffffffffffffffffffffffff16815260200160016005811115612b3657612b35613743565b5b81526020018681526020018581526020018415158152602001600754815260200160001515815260200160001515815250905080600360008481526020019081526020016000206000820151816000015560208201518160010160006101000a81548173ffffffffffffffffffffffffffffffffffffffff021916908373ffffffffffffffffffffffffffffffffffffffff16021790555060408201518160020160006101000a81548173ffffffffffffffffffffffffffffffffffffffff021916908373ffffffffffffffffffffffffffffffffffffffff16021790555060608201518160020160146101000a81548160ff02191690836005811115612c4057612c3f613743565b5b02179055506080820151816003015560a0820151816004015560c08201518160050160006101000a81548160ff02191690831515021790555060e082015181600601556101008201518160070160006101000a81548160ff0219169083151502179055506101208201518160070160016101000a81548160ff021916908315150217905550905050816004600088815260200190815260200160002081905550816006600060075481526020019081526020016000208190555060076000815480929190612d0d906142b1565b9190505550600560003373ffffffffffffffffffffffffffffffffffffffff1673ffffffffffffffffffffffffffffffffffffffff1681526020019081526020016000208290806001815401808255809150506001900390600052602060002001600090919091909150557f932bb8e1964b19f151b100006d1433bdf7b9a6d6368ec8d600028f2b1932070386338487604051612dad94939291906148c1565b60405180910390a1505050505050565b6003600082815260200190815260200160002060020160009054906101000a900473ffffffffffffffffffffffffffffffffffffffff1673ffffffffffffffffffffffffffffffffffffffff163373ffffffffffffffffffffffffffffffffffffffff1614612e61576040517f08c379a0000000000000000000000000000000000000000000000000000000008152600401612e5890614978565b60405180910390fd5b60026005811115612e7557612e74613743565b5b6003600083815260200190815260200160002060020160149054906101000a900460ff166005811115612eab57612eaa613743565b5b14612eeb576040517f08c379a0000000000000000000000000000000000000000000000000000000008152600401612ee2906149e4565b60405180910390fd5b60056003600083815260200190815260200160002060020160146101000a81548160ff02191690836005811115612f2557612f24613743565b5b02179055507f48ae6fca79163101ea4f5b073efc510017228ac372cd41c1d2b4e8ec683bd82281604051612f599190613676565b60405180910390a150565b60006003600084815260200190815260200160002060405180610140016040529081600082015481526020016001820160009054906101000a900473ffffffffffffffffffffffffffffffffffffffff1673ffffffffffffffffffffffffffffffffffffffff1673ffffffffffffffffffffffffffffffffffffffff1681526020016002820160009054906101000a900473ffffffffffffffffffffffffffffffffffffffff1673ffffffffffffffffffffffffffffffffffffffff1673ffffffffffffffffffffffffffffffffffffffff1681526020016002820160149054906101000a900460ff1660058111156130605761305f613743565b5b600581111561307257613071613743565b5b815260200160038201548152602001600482015481526020016005820160009054906101000a900460ff16151515158152602001600682015481526020016007820160009054906101000a900460ff161515151581526020016007820160019054906101000a900460ff16151515158152505090503373ffffffffffffffffffffffffffffffffffffffff16816020015173ffffffffffffffffffffffffffffffffffffffff1614613159576040517f08c379a000000000000000000000000000000000000000000000000000000000815260040161315090614a76565b60405180910390fd5b6001600581111561316d5761316c613743565b5b8160600151600581111561318457613183613743565b5b146131c4576040517f08c379a00000000000000000000000000000000000000000000000000000000081526004016131bb9061412d565b60405180910390fd5b818160800151111561320b576040517f08c379a00000000000000000000000000000000000000000000000000000000081526004016132029061436b565b60405180910390fd5b8160036000858152602001908152602001600020600401819055507f32f2b6309378457b4dd94fe258595c9b095bcde80654521e246cbc06bf63296183833360405161325993929190614a96565b60405180910390a1505050565b60006003600083815260200190815260200160002060405180610140016040529081600082015481526020016001820160009054906101000a900473ffffffffffffffffffffffffffffffffffffffff1673ffffffffffffffffffffffffffffffffffffffff1673ffffffffffffffffffffffffffffffffffffffff1681526020016002820160009054906101000a900473ffffffffffffffffffffffffffffffffffffffff1673ffffffffffffffffffffffffffffffffffffffff1673ffffffffffffffffffffffffffffffffffffffff1681526020016002820160149054906101000a900460ff16600581111561336257613361613743565b5b600581111561337457613373613743565b5b815260200160038201548152602001600482015481526020016005820160009054906101000a900460ff16151515158152602001600682015481526020016007820160009054906101000a900460ff161515151581526020016007820160019054906101000a900460ff1615151515815250509050600060046000836000015181526020019081526020016000208190555060008160e00151905060006006600060016007546134249190614acd565b8152602001908152602001600020549050808414613470578160036000838152602001908152602001600020600601819055508060066000848152602001908152602001600020819055505b6007600081548092919061348390614b01565b919050555050505050565b6040518060400160405280600081526020016134a86134ef565b81525090565b6040518060a00160405280600081526020016134c8613586565b8152602001600081526020016134dc6134ef565b81526020016134e96135c6565b81525090565b60405180610140016040528060008152602001600073ffffffffffffffffffffffffffffffffffffffff168152602001600073ffffffffffffffffffffffffffffffffffffffff168152602001600060058111156135505761354f613743565b5b81526020016000815260200160008152602001600015158152602001600081526020016000151581526020016000151581525090565b60405180608001604052806000815260200160008152602001600073ffffffffffffffffffffffffffffffffffffffff1681526020016000151581525090565b60405180608001604052806000815260200160608152602001600081526020016000151581525090565b6000604051905090565b600080fd5b600080fd5b6000819050919050565b61361781613604565b811461362257600080fd5b50565b6000813590506136348161360e565b92915050565b6000602082840312156136505761364f6135fa565b5b600061365e84828501613625565b91505092915050565b61367081613604565b82525050565b600060208201905061368b6000830184613667565b92915050565b60008115159050919050565b6136a681613691565b82525050565b60006020820190506136c1600083018461369d565b92915050565b600081519050919050565b600082825260208201905092915050565b6000819050602082019050919050565b6136fc81613604565b82525050565b600073ffffffffffffffffffffffffffffffffffffffff82169050919050565b600061372d82613702565b9050919050565b61373d81613722565b82525050565b7f4e487b7100000000000000000000000000000000000000000000000000000000600052602160045260246000fd5b6006811061378357613782613743565b5b50565b600081905061379482613772565b919050565b60006137a482613786565b9050919050565b6137b481613799565b82525050565b6137c381613691565b82525050565b610140820160008201516137e060008501826136f3565b5060208201516137f36020850182613734565b5060408201516138066040850182613734565b50606082015161381960608501826137ab565b50608082015161382c60808501826136f3565b5060a082015161383f60a08501826136f3565b5060c082015161385260c08501826137ba565b5060e082015161386560e08501826136f3565b5061010082015161387a6101008501826137ba565b5061012082015161388f6101208501826137ba565b50505050565b610160820160008201516138ac60008501826136f3565b5060208201516138bf60208501826137c9565b50505050565b60006138d18383613895565b6101608301905092915050565b6000602082019050919050565b60006138f6826136c7565b61390081856136d2565b935061390b836136e3565b8060005b8381101561393c57815161392388826138c5565b975061392e836138de565b92505060018101905061390f565b5085935050505092915050565b6000602082019050818103600083015261396381846138eb565b905092915050565b61397481613722565b811461397f57600080fd5b50565b6000813590506139918161396b565b92915050565b600080604083850312156139ae576139ad6135fa565b5b60006139bc85828601613982565b92505060206139cd85828601613625565b9150509250929050565b6000806000606084860312156139f0576139ef6135fa565b5b60006139fe86828701613625565b9350506020613a0f86828701613982565b9250506040613a2086828701613625565b9150509250925092565b608082016000820151613a4060008501826136f3565b506020820151613a5360208501826136f3565b506040820151613a666040850182613734565b506060820151613a7960608501826137ba565b50505050565b600081519050919050565b600082825260208201905092915050565b60005b83811015613ab9578082015181840152602081019050613a9e565b83811115613ac8576000848401525b50505050565b6000601f19601f8301169050919050565b6000613aea82613a7f565b613af48185613a8a565b9350613b04818560208601613a9b565b613b0d81613ace565b840191505092915050565b6000608083016000830151613b3060008601826136f3565b5060208301518482036020860152613b488282613adf565b9150506040830151613b5d60408601826136f3565b506060830151613b7060608601826137ba565b508091505092915050565b600061022083016000830151613b9460008601826136f3565b506020830151613ba76020860182613a2a565b506040830151613bba60a08601826136f3565b506060830151613bcd60c08601826137c9565b506080830151848203610200860152613be68282613b18565b9150508091505092915050565b60006020820190508181036000830152613c0d8184613b7b565b905092915050565b600060208284031215613c2b57613c2a6135fa565b5b6000613c3984828501613982565b91505092915050565b600081519050919050565b600082825260208201905092915050565b6000819050602082019050919050565b600061022083016000830151613c8760008601826136f3565b506020830151613c9a6020860182613a2a565b506040830151613cad60a08601826136f3565b506060830151613cc060c08601826137c9565b506080830151848203610200860152613cd98282613b18565b9150508091505092915050565b6000613cf28383613c6e565b905092915050565b6000602082019050919050565b6000613d1282613c42565b613d1c8185613c4d565b935083602082028501613d2e85613c5e565b8060005b85811015613d6a5784840389528151613d4b8582613ce6565b9450613d5683613cfa565b925060208a01995050600181019050613d32565b50829750879550505050505092915050565b60006020820190508181036000830152613d968184613d07565b905092915050565b613da781613722565b82525050565b6000602082019050613dc26000830184613d9e565b92915050565b613dd181613799565b82525050565b600061014082019050613ded600083018d613667565b613dfa602083018c613d9e565b613e07604083018b613d9e565b613e14606083018a613dc8565b613e216080830189613667565b613e2e60a0830188613667565b613e3b60c083018761369d565b613e4860e0830186613667565b613e5661010083018561369d565b613e6461012083018461369d565b9b9a5050505050505050505050565b600081519050919050565b600082825260208201905092915050565b6000819050602082019050919050565b6000613eab83836137c9565b6101408301905092915050565b6000602082019050919050565b6000613ed082613e73565b613eda8185613e7e565b9350613ee583613e8f565b8060005b83811015613f16578151613efd8882613e9f565b9750613f0883613eb8565b925050600181019050613ee9565b5085935050505092915050565b60006020820190508181036000830152613f3d8184613ec5565b905092915050565b613f4e81613691565b8114613f5957600080fd5b50565b600081359050613f6b81613f45565b92915050565b60008060008060808587031215613f8b57613f8a6135fa565b5b6000613f9987828801613625565b9450506020613faa87828801613625565b9350506040613fbb87828801613625565b9250506060613fcc87828801613f5c565b91505092959194509250565b60008060408385031215613fef57613fee6135fa565b5b6000613ffd85828601613625565b925050602061400e85828601613625565b9150509250929050565b600082825260208201905092915050565b7f42752069736c656d2073616465636520736174696369207461726166696e646160008201527f6e20796170696c69720000000000000000000000000000000000000000000000602082015250565b6000614085602983614018565b915061409082614029565b604082019050919050565b600060208201905081810360008301526140b481614078565b9050919050565b7f53616465636520796179696e6461206f6c616e20696c616e6c6172206963696e60008201527f2062752069736c656d20796170696c6162696c69720000000000000000000000602082015250565b6000614117603583614018565b9150614122826140bb565b604082019050919050565b600060208201905081810360008301526141468161410a565b9050919050565b60006040820190506141626000830185613d9e565b61416f6020830184613667565b9392505050565b60008151905061418581613f45565b92915050565b6000602082840312156141a1576141a06135fa565b5b60006141af84828501614176565b91505092915050565b7f42752069736c656d69207361646563652061646d696e207961706162696c6972600082015250565b60006141ee602083614018565b91506141f9826141b8565b602082019050919050565b6000602082019050818103600083015261421d816141e1565b9050919050565b7f4e487b7100000000000000000000000000000000000000000000000000000000600052604160045260246000fd5b7f4e487b7100000000000000000000000000000000000000000000000000000000600052603260045260246000fd5b7f4e487b7100000000000000000000000000000000000000000000000000000000600052601160045260246000fd5b60006142bc82613604565b91507fffffffffffffffffffffffffffffffffffffffffffffffffffffffffffffffff82036142ee576142ed614282565b5b600182019050919050565b7f536174697320666979617420726179696320626564656c64656e20647573756b60008201527f206f6c616d617a00000000000000000000000000000000000000000000000000602082015250565b6000614355602783614018565b9150614360826142f9565b604082019050919050565b6000602082019050818103600083015261438481614348565b9050919050565b60006060820190506143a06000830186613667565b6143ad6020830185613d9e565b6143ba6040830184613d9e565b949350505050565b600080fd5b6143d082613ace565b810181811067ffffffffffffffff821117156143ef576143ee614224565b5b80604052505050565b60006144026135f0565b905061440e82826143c7565b919050565b600080fd5b6000815190506144278161360e565b92915050565b60008151905061443c8161396b565b92915050565b600060808284031215614458576144576143c2565b5b61446260806143f8565b9050600061447284828501614418565b600083015250602061448684828501614418565b602083015250604061449a8482850161442d565b60408301525060606144ae84828501614176565b60608301525092915050565b6000608082840312156144d0576144cf6135fa565b5b60006144de84828501614442565b91505092915050565b600080fd5b600080fd5b600067ffffffffffffffff82111561450c5761450b614224565b5b61451582613ace565b9050602081019050919050565b6000614535614530846144f1565b6143f8565b905082815260208101848484011115614551576145506144ec565b5b61455c848285613a9b565b509392505050565b600082601f830112614579576145786144e7565b5b8151614589848260208601614522565b91505092915050565b6000608082840312156145a8576145a76143c2565b5b6145b260806143f8565b905060006145c284828501614418565b600083015250602082015167ffffffffffffffff8111156145e6576145e5614413565b5b6145f284828501614564565b602083015250604061460684828501614418565b604083015250606061461a84828501614176565b60608301525092915050565b60006020828403121561463c5761463b6135fa565b5b600082015167ffffffffffffffff81111561465a576146596135ff565b5b61466684828501614592565b91505092915050565b600060208284031215614685576146846135fa565b5b600061469384828501614418565b91505092915050565b60006040820190506146b16000830185613667565b6146be6020830184613d9e565b9392505050565b7f6f6e63656c696b6c6520616c696369206b696c6974206b616c6469726d616c69600082015250565b60006146fb602083614018565b9150614706826146c5565b602082019050919050565b6000602082019050818103600083015261472a816146ee565b9050919050565b7f48697373652073616465636520736168696269207461726166696e64616e206960008201527f6c616e206f6c7573747572756c6d616c69000000000000000000000000000000602082015250565b600061478d603183614018565b915061479882614731565b604082019050919050565b600060208201905081810360008301526147bc81614780565b9050919050565b7f6164766572746973656d656e7420666f72207265616c2065737461746520616c60008201527f726561647920657869737420696e207468652073797374656d00000000000000602082015250565b600061481f603983614018565b915061482a826147c3565b604082019050919050565b6000602082019050818103600083015261484e81614812565b9050919050565b7f47617972696d656e6b756c756e20766572676920626f726375206f6c6d617a00600082015250565b600061488b601f83614018565b915061489682614855565b602082019050919050565b600060208201905081810360008301526148ba8161487e565b9050919050565b60006080820190506148d66000830187613667565b6148e36020830186613d9e565b6148f06040830185613667565b6148fd6060830184613667565b95945050505050565b7f42752069736c656d2073616465636520616c696369207461726166696e64616e60008201527f20796170696c6972000000000000000000000000000000000000000000000000602082015250565b6000614962602883614018565b915061496d82614906565b604082019050919050565b6000602082019050818103600083015261499181614955565b9050919050565b7f696c616e20616c696369206963696e206b69746c656e6d656d69730000000000600082015250565b60006149ce601b83614018565b91506149d982614998565b602082019050919050565b600060208201905081810360008301526149fd816149c1565b9050919050565b7f42752069736c656d692073616465636520736174696369207961706162696c6960008201527f7200000000000000000000000000000000000000000000000000000000000000602082015250565b6000614a60602183614018565b9150614a6b82614a04565b604082019050919050565b60006020820190508181036000830152614a8f81614a53565b9050919050565b6000606082019050614aab6000830186613667565b614ab86020830185613667565b614ac56040830184613d9e565b949350505050565b6000614ad882613604565b9150614ae383613604565b925082821015614af657614af5614282565b5b828203905092915050565b6000614b0c82613604565b915060008203614b1f57614b1e614282565b5b60018203905091905056fea2646970667358221220ec8bd8561a09782c76290f0a5e489728cf41c96b22fb3c15c896b13deca7e10c64736f6c634300080e0033",
  "immutableReferences": {},
  "source": "// SPDX-License-Identifier: UNLICENSED\r\npragma solidity ^0.8.0;\r\n\r\nimport \"./Owner.sol\";\r\nimport \"./RealEstateOwnerRelation.sol\";\r\nimport \"./NotaryContractBase.sol\";\r\nimport \"./RealEstate.sol\";\r\n\r\ncontract RealEstateSaleAd is NotaryContractBase{\r\n\r\n    RealEstateOwnerRelation realEstateOwnerRelation;\r\n    Owner ownerContract;\r\n    RealEstate realEstate;\r\n\r\n    event ilanOlusturuldu(uint hisseId, address saticiId, uint ilanId, uint fiyat);\r\n    event ilanYayindanKaldirildi(address saticiId, uint ilanId);\r\n    event aliciIcinKilitlendi(uint ilanId, address saticiId, address aliciId);    \r\n    event fiyatDegistir(uint ilanId, uint yeniSatisFiyat, address saticiId);\r\n    event kilitKaldirildiWithAliciOnayi(uint ilanId);\r\n    event kilitKaldirildiWithSaticiOnayi(uint ilanId);\r\n    event alicisistemHesabinaParaAktardi(address alici, uint ilanId, uint miktar);\r\n \r\n    mapping (uint => Advertisement) public adIdMap;\r\n    mapping (uint => uint) public hisseIdAdIdMap;\r\n    mapping (address => uint[]) public ownerAdIdListMap;\r\n    mapping (uint => uint) public adIdLUT;\r\n    uint adIdLUTLength = 0;\r\n\r\n    constructor(address ownerContractAdd, address realOwnRelAddress, address realEstateAddress)  {\r\n        ownerContract=Owner(ownerContractAdd);\r\n        realEstateOwnerRelation=RealEstateOwnerRelation(realOwnRelAddress);\r\n        realEstate=RealEstate(realEstateAddress);\r\n    }\r\n\r\n    function ilanOlustur(uint hisseId, uint256 rayicBedeli, uint256 satisFiyat, bool borcuVarMi) public {\r\n        require(realEstateOwnerRelation.hisseSatisaCikabilirMi(hisseId, msg.sender), \"Hisse sadece sahibi tarafindan ilan olusturulmali\");\r\n        require(hisseIdAdIdMap[hisseId] == 0, \"advertisement for real estate already exist in the system\");\r\n        require(rayicBedeli <= satisFiyat, \"Satis fiyat rayic bedelden dusuk olamaz\");\r\n        require(!borcuVarMi, \"Gayrimenkulun vergi borcu olmaz\");\r\n\r\n        uint ilanId = block.timestamp;\r\n        Advertisement memory ad = Advertisement(hisseId, msg.sender, address(0), State.YAYINDA, rayicBedeli, satisFiyat, borcuVarMi, adIdLUTLength, false, false);\r\n        adIdMap[ilanId] = ad;\r\n        hisseIdAdIdMap[hisseId] = ilanId;\r\n        adIdLUT[adIdLUTLength] = ilanId;\r\n        adIdLUTLength++;\r\n        ownerAdIdListMap[msg.sender].push(ilanId);\r\n        emit ilanOlusturuldu(hisseId, msg.sender, ilanId, satisFiyat);\r\n    }\r\n\r\n    function ilanYayindanKaldir(uint ilanId) public {\r\n        require(adIdMap[ilanId].satici == msg.sender, \"Bu islem sadece satici tarafindan yapilir\");\r\n        require(adIdMap[ilanId].state == State.YAYINDA, \"Sadece yayinda olan ilanlar icin bu islem yapilabilir\");\r\n        adIdMap[ilanId].state = State.YAYINDAN_KALDIRILDI;        \r\n        updateLUT(ilanId);\r\n        emit ilanYayindanKaldirildi(msg.sender, ilanId);\r\n    }\r\n    \r\n    function updateLUT(uint ilanId) private {\r\n        Advertisement memory yayindanKaldirildiAd = adIdMap[ilanId];\r\n        hisseIdAdIdMap[yayindanKaldirildiAd.hisseId] = 0;\r\n        uint yayindanKaldirilanItemIndex = yayindanKaldirildiAd.adIdLUTIndex;\r\n        uint lastAdInLUT = adIdLUT[adIdLUTLength -1];\r\n        if(ilanId != lastAdInLUT){\r\n            adIdMap[lastAdInLUT].adIdLUTIndex = yayindanKaldirilanItemIndex;\r\n            adIdLUT[yayindanKaldirilanItemIndex] = lastAdInLUT;              \r\n        }\r\n        adIdLUTLength--;\r\n    }\r\n\r\n    function aliciIcinKilitle(uint ilanId, address aliciAdd, uint fiyat) public {\r\n        Advertisement memory ad =  adIdMap[ilanId];\r\n        //require(ad.satici == msg.sender, \"Bu islemi sadece satici yapabilir\");\r\n        require(ad.state == State.YAYINDA, \"Sadece yayinda olan ilanlar icin bu islem yapilabilir\");\r\n        require(ad.rayicBedeli <= fiyat, \"Satis fiyat rayic bedelden dusuk olamaz\");\r\n        adIdMap[ilanId].state = State.ALICI_ICIN_KILITLENDI;\r\n        adIdMap[ilanId].alici = aliciAdd;\r\n        adIdMap[ilanId].fiyat = fiyat;\r\n\r\n        emit aliciIcinKilitlendi(ilanId, msg.sender, aliciAdd);    \r\n    }\r\n\r\n    function changeSatisFiyat(uint ilanId, uint newfiyat) public {\r\n        Advertisement memory ad =  adIdMap[ilanId];\r\n        require(ad.satici == msg.sender, \"Bu islemi sadece satici yapabilir\");\r\n        require(ad.state == State.YAYINDA, \"Sadece yayinda olan ilanlar icin bu islem yapilabilir\");\r\n        require(ad.rayicBedeli <= newfiyat, \"Satis fiyat rayic bedelden dusuk olamaz\");\r\n        adIdMap[ilanId].fiyat = newfiyat;\r\n        emit fiyatDegistir(ilanId, newfiyat, msg.sender);\r\n    }\r\n\r\n    function kilitKaldirWithAliciOnayi(uint ilanId) public {\r\n        require(msg.sender == adIdMap[ilanId].alici, \"Bu islem sadece alici tarafindan yapilir\");\r\n        require(adIdMap[ilanId].state == State.ALICI_ICIN_KILITLENDI, \"ilan alici icin kitlenmemis\");\r\n        adIdMap[ilanId].state = State.ALICI_ONAYI_ILE_KILIT_KALDIRMA;\r\n        emit kilitKaldirildiWithAliciOnayi(ilanId);\r\n    }\r\n\r\n    function kilitKaldirWithSaticiOnayi(uint ilanId) public {\r\n        require(msg.sender == adIdMap[ilanId].satici, \"Bu islem sadece satici tarafindan yapilir\");\r\n        require(adIdMap[ilanId].state == State.ALICI_ONAYI_ILE_KILIT_KALDIRMA, \"oncelikle alici kilit kaldirmali\");\r\n        adIdMap[ilanId].state = State.YAYINDA;\r\n        emit kilitKaldirildiWithSaticiOnayi(ilanId);\r\n    }\r\n\r\n    function getUserAds(address ownAdd) public view returns(Advertisement [] memory){\r\n        //sadece kullanici yapabilsin kendi ilanlarini grebilsin\r\n        uint[] memory ownAdIds = ownerAdIdListMap[ownAdd];\r\n        Advertisement [] memory ads = new Advertisement[](ownAdIds.length);        \r\n        for(uint i = 0; i< ownAdIds.length; i++){\r\n            Advertisement memory ad = adIdMap[ownAdIds[i]];\r\n            if(ad.state != State.YAYINDAN_KALDIRILDI || ad.state != State.DEVIR_ISLEMI_TAMAMLANDI){\r\n                ads[i] = adIdMap[ownAdIds[i]];\r\n            }\r\n        }\r\n        return ads;\r\n    }   \r\n\r\n    function ilanaTeklifVerilebilirMi(uint ilanId) public view returns(bool){\r\n        return adIdMap[ilanId].state == State.YAYINDA;\r\n    }\r\n\r\n    function getIlanSatici(uint ilanId) public view returns(address){\r\n        return adIdMap[ilanId].satici;\r\n    }\r\n\r\n    function alicidanParaAlindi(uint ilanId) public {\r\n        require(ownerContract.isAdmin(msg.sender), \"Bu islemi sadece admin yapabilir\");\r\n        adIdMap[ilanId].aliciParaTransferi = true;\r\n        Advertisement memory advertisement = adIdMap[ilanId];\r\n        if(advertisement.saticiParaTransferi){\r\n            realEstateOwnerRelation.changeOwnerShip(advertisement.hisseId, advertisement.alici);\r\n            adIdMap[ilanId].state = State.DEVIR_ISLEMI_TAMAMLANDI;\r\n            updateLUT(ilanId);\r\n        }\r\n    }\r\n\r\n    function saticidanTapuHarciAlindi(uint ilanId) public {\r\n        require(ownerContract.isAdmin(msg.sender), \"Bu islemi sadece admin yapabilir\");\r\n        adIdMap[ilanId].saticiParaTransferi = true;\r\n        Advertisement memory advertisement = adIdMap[ilanId];\r\n        if(advertisement.aliciParaTransferi){\r\n            realEstateOwnerRelation.changeOwnerShip(advertisement.hisseId, advertisement.alici);\r\n            adIdMap[ilanId].state = State.DEVIR_ISLEMI_TAMAMLANDI;\r\n            updateLUT(ilanId);\r\n        }\r\n    }\r\n\r\n    function getAliciIcinKitlenenIlanlar() public view returns(AdDto[] memory) {\r\n        require(ownerContract.isAdmin(msg.sender), \"Bu islemi sadece admin yapabilir\");\r\n        AdDto [] memory result = new AdDto[]( adIdLUTLength);\r\n        uint resultCount = 0;\r\n        for(uint i; i< adIdLUTLength; i++){\r\n            uint ilanId =adIdLUT[i];\r\n            Advertisement memory ad =  adIdMap[ilanId]; \r\n            if(ad.state == State.ALICI_ICIN_KILITLENDI){\r\n                result[resultCount] =AdDto(ilanId, ad);\r\n            }\r\n        }\r\n        return result;\r\n    }\r\n\r\n    function getUserAssets(address ownAdd) public view returns(HisseAdData[] memory){\r\n        uint hisseIdsLength = realEstateOwnerRelation.getOwnerHisseLength(ownAdd);\r\n        HisseAdData [] memory result = new HisseAdData[](hisseIdsLength);\r\n        uint resultCount = 0;\r\n        for(uint i = 0; i< hisseIdsLength; i++){\r\n            uint hisseId = realEstateOwnerRelation.getOwnerHisseId(ownAdd, i);\r\n           if(hisseId != 0 ){\r\n                Hisse memory hisse = realEstateOwnerRelation.getHisse(hisseId);\r\n                RealEstateData memory realEstateData = realEstate.getRealEstateInfo(hisse.realEstateId);\r\n                uint ilanId = hisseIdAdIdMap[hisseId];\r\n                Advertisement memory advertisement = adIdMap[ilanId];\r\n                result[resultCount++] = HisseAdData(hisseId, hisse, ilanId, advertisement, realEstateData);\r\n            }\r\n        }\r\n        return result;\r\n    }\r\n\r\n    function getAllAds() public view returns(HisseAdData [] memory){\r\n        HisseAdData [] memory result = new HisseAdData[](adIdLUTLength);\r\n        for(uint i = 0; i< adIdLUTLength; i++){\r\n            uint ilanId = adIdLUT[i];\r\n            Advertisement memory ad = adIdMap[ilanId];\r\n            Hisse memory hisse = realEstateOwnerRelation.getHisse(ad.hisseId);\r\n            RealEstateData memory realEstateData = realEstate.getRealEstateInfo(hisse.realEstateId);\r\n            result[i] = HisseAdData(ad.hisseId, hisse, ilanId, ad, realEstateData);\r\n        }\r\n        return result;\r\n    }\r\n\r\n    function getHisseAdDataById(uint ilanId) public view returns(HisseAdData memory){\r\n        Advertisement memory ad = adIdMap[ilanId];\r\n        Hisse memory hisse = realEstateOwnerRelation.getHisse(ad.hisseId);\r\n        RealEstateData memory realEstateData = realEstate.getRealEstateInfo(hisse.realEstateId);\r\n        return HisseAdData(ad.hisseId, hisse, ilanId, ad, realEstateData);\r\n    }\r\n\r\n    function isAdYayinda(uint ilanId) public view returns(bool){\r\n        Advertisement memory ad = adIdMap[ilanId];\r\n        return ad.state == State.YAYINDA;\r\n    }\r\n\r\n}\r\n",
  "sourcePath": "D:\\Ethereum Projects\\DAWithEth\\truffle-project\\contracts\\RealEstateSaleAd.sol",
  "compiler": {
    "name": "solc",
    "version": "0.8.14+commit.80d49f37.Emscripten.clang"
  },
  "schemaVersion": "3.4.11",
  "updatedAt": "2023-01-15T11:50:50.467Z",
  "devdoc": {
    "kind": "dev",
    "methods": {},
    "version": 1
  },
  "userdoc": {
    "kind": "user",
    "methods": {},
    "version": 1
  }
}