{
  "contractName": "RealEstate",
  "abi": [
    {
      "inputs": [
        {
          "internalType": "string",
          "name": "mahalle",
          "type": "string"
        },
        {
          "internalType": "uint256",
          "name": "payda",
          "type": "uint256"
        }
      ],
      "name": "addRealEstate",
      "outputs": [],
      "stateMutability": "nonpayable",
      "type": "function"
    },
    {
      "inputs": [
        {
          "internalType": "uint256",
          "name": "realEstateId",
          "type": "uint256"
        }
      ],
      "name": "isRealEstateRegisted",
      "outputs": [
        {
          "internalType": "bool",
          "name": "",
          "type": "bool"
        }
      ],
      "stateMutability": "view",
      "type": "function",
      "constant": true
    },
    {
      "inputs": [
        {
          "internalType": "uint256",
          "name": "realEstateId",
          "type": "uint256"
        }
      ],
      "name": "getRealEstatePayda",
      "outputs": [
        {
          "internalType": "uint256",
          "name": "",
          "type": "uint256"
        }
      ],
      "stateMutability": "view",
      "type": "function",
      "constant": true
    },
    {
      "inputs": [
        {
          "internalType": "uint256",
          "name": "realEstateId",
          "type": "uint256"
        }
      ],
      "name": "getRealEstateInfo",
      "outputs": [
        {
          "internalType": "string",
          "name": "",
          "type": "string"
        }
      ],
      "stateMutability": "view",
      "type": "function",
      "constant": true
    }
  ],
  "bytecode": "0x608060405234801561001057600080fd5b506106e9806100206000396000f3fe608060405234801561001057600080fd5b506004361061004c5760003560e01c80633c7422df146100515780635a8f671314610081578063969430e2146100b15780639f8188b3146100cd575b600080fd5b61006b6004803603810190610066919061037a565b6100fd565b60405161007891906103b6565b60405180910390f35b61009b6004803603810190610096919061037a565b61011c565b6040516100a891906103ec565b60405180910390f35b6100cb60048036038101906100c6919061054d565b610148565b005b6100e760048036038101906100e2919061037a565b6101e6565b6040516100f49190610631565b60405180910390f35b6000806000838152602001908152602001600020600201549050919050565b600080600083815260200190815260200160002060030160009054906101000a900460ff169050919050565b6000828051906020012060001c90506040518060800160405280828152602001848152602001838152602001600115158152506000808381526020019081526020016000206000820151816000015560208201518160010190805190602001906101b392919061028d565b506040820151816002015560608201518160030160006101000a81548160ff021916908315150217905550905050505050565b6060600080838152602001908152602001600020600101805461020890610682565b80601f016020809104026020016040519081016040528092919081815260200182805461023490610682565b80156102815780601f1061025657610100808354040283529160200191610281565b820191906000526020600020905b81548152906001019060200180831161026457829003601f168201915b50505050509050919050565b82805461029990610682565b90600052602060002090601f0160209004810192826102bb5760008555610302565b82601f106102d457805160ff1916838001178555610302565b82800160010185558215610302579182015b828111156103015782518255916020019190600101906102e6565b5b50905061030f9190610313565b5090565b5b8082111561032c576000816000905550600101610314565b5090565b6000604051905090565b600080fd5b600080fd5b6000819050919050565b61035781610344565b811461036257600080fd5b50565b6000813590506103748161034e565b92915050565b6000602082840312156103905761038f61033a565b5b600061039e84828501610365565b91505092915050565b6103b081610344565b82525050565b60006020820190506103cb60008301846103a7565b92915050565b60008115159050919050565b6103e6816103d1565b82525050565b600060208201905061040160008301846103dd565b92915050565b600080fd5b600080fd5b6000601f19601f8301169050919050565b7f4e487b7100000000000000000000000000000000000000000000000000000000600052604160045260246000fd5b61045a82610411565b810181811067ffffffffffffffff8211171561047957610478610422565b5b80604052505050565b600061048c610330565b90506104988282610451565b919050565b600067ffffffffffffffff8211156104b8576104b7610422565b5b6104c182610411565b9050602081019050919050565b82818337600083830152505050565b60006104f06104eb8461049d565b610482565b90508281526020810184848401111561050c5761050b61040c565b5b6105178482856104ce565b509392505050565b600082601f83011261053457610533610407565b5b81356105448482602086016104dd565b91505092915050565b600080604083850312156105645761056361033a565b5b600083013567ffffffffffffffff8111156105825761058161033f565b5b61058e8582860161051f565b925050602061059f85828601610365565b9150509250929050565b600081519050919050565b600082825260208201905092915050565b60005b838110156105e35780820151818401526020810190506105c8565b838111156105f2576000848401525b50505050565b6000610603826105a9565b61060d81856105b4565b935061061d8185602086016105c5565b61062681610411565b840191505092915050565b6000602082019050818103600083015261064b81846105f8565b905092915050565b7f4e487b7100000000000000000000000000000000000000000000000000000000600052602260045260246000fd5b6000600282049050600182168061069a57607f821691505b6020821081036106ad576106ac610653565b5b5091905056fea2646970667358221220149a2a3561e93939b756f4750d99f0beaecc2ecf9e39f2c21d15a586977e42c364736f6c634300080e0033",
  "immutableReferences": {},
  "source": "// SPDX-License-Identifier: UNLICENSED\r\npragma solidity ^0.8.0;\r\n\r\ncontract RealEstate {\r\n\r\n    struct RealEstateData {\r\n        uint realEstateId;\r\n       // string il;\r\n        //string ilce;\r\n        string mahalle;\r\n        //string tasinmazTip;\r\n        //string nitelik; //TODO enum\r\n        //string ada;\r\n        //string parsel;\r\n        uint payda;\r\n        bool registered;\r\n        \r\n    }\r\n\r\n    mapping(uint => RealEstateData) realEstateMap; \r\n \r\n\r\n\r\n    function addRealEstate(string memory mahalle, uint payda) public{\r\n        uint realEstateId=uint(keccak256(bytes(mahalle)));\r\n         realEstateMap[realEstateId] = RealEstateData(realEstateId, mahalle, payda, true);\r\n    }\r\n\r\n    function isRealEstateRegisted(uint realEstateId) public view returns(bool){\r\n        return realEstateMap[realEstateId].registered;\r\n    }\r\n  \r\n    function getRealEstatePayda(uint realEstateId) public view returns(uint){\r\n        return realEstateMap[realEstateId].payda;\r\n    }\r\n\r\n    function getRealEstateInfo(uint realEstateId) public view returns(string memory) {\r\n        return realEstateMap[realEstateId].mahalle;\r\n    }\r\n    \r\n}",
  "sourcePath": "D:\\Ethereum Projects\\DAWithEth\\truffle-project\\contracts\\RealEstate.sol",
  "compiler": {
    "name": "solc",
    "version": "0.8.14+commit.80d49f37.Emscripten.clang"
  },
  "schemaVersion": "3.4.11",
  "updatedAt": "2022-12-28T18:22:55.610Z",
  "networkType": "ethereum",
  "devdoc": {
    "kind": "dev",
    "methods": {},
    "version": 1
  },
  "userdoc": {
    "kind": "user",
    "methods": {},
    "version": 1
  }
}