{
  "contractName": "RealEstate",
  "abi": [
    {
      "inputs": [
        {
          "internalType": "string",
          "name": "mahalle",
          "type": "string"
        },
        {
          "internalType": "uint256",
          "name": "payda",
          "type": "uint256"
        }
      ],
      "name": "addRealEstate",
      "outputs": [],
      "stateMutability": "nonpayable",
      "type": "function"
    },
    {
      "inputs": [
        {
          "internalType": "uint256",
          "name": "realEstateId",
          "type": "uint256"
        }
      ],
      "name": "isRealEstateRegisted",
      "outputs": [
        {
          "internalType": "bool",
          "name": "",
          "type": "bool"
        }
      ],
      "stateMutability": "view",
      "type": "function"
    },
    {
      "inputs": [
        {
          "internalType": "uint256",
          "name": "realEstateId",
          "type": "uint256"
        }
      ],
      "name": "getRealEstatePayda",
      "outputs": [
        {
          "internalType": "uint256",
          "name": "",
          "type": "uint256"
        }
      ],
      "stateMutability": "view",
      "type": "function"
    },
    {
      "inputs": [
        {
          "internalType": "uint256",
          "name": "realEstateId",
          "type": "uint256"
        }
      ],
      "name": "getRealEstateInfo",
      "outputs": [
        {
          "internalType": "string",
          "name": "",
          "type": "string"
        }
      ],
      "stateMutability": "view",
      "type": "function"
    },
    {
      "inputs": [
        {
          "internalType": "string",
          "name": "mahalle",
          "type": "string"
        }
      ],
      "name": "getId",
      "outputs": [
        {
          "internalType": "uint256",
          "name": "",
          "type": "uint256"
        }
      ],
      "stateMutability": "pure",
      "type": "function"
    }
  ],
  "bytecode": "0x608060405234801561001057600080fd5b50610786806100206000396000f3fe608060405234801561001057600080fd5b50600436106100575760003560e01c80633c7422df1461005c5780635a8f67131461008c578063969430e2146100bc5780639f8188b3146100d8578063bee51f3b14610108575b600080fd5b610076600480360381019061007191906103ce565b610138565b604051610083919061040a565b60405180910390f35b6100a660048036038101906100a191906103ce565b610157565b6040516100b39190610440565b60405180910390f35b6100d660048036038101906100d191906105a1565b610183565b005b6100f260048036038101906100ed91906103ce565b610221565b6040516100ff9190610685565b60405180910390f35b610122600480360381019061011d91906106a7565b6102c8565b60405161012f919061040a565b60405180910390f35b6000806000838152602001908152602001600020600201549050919050565b600080600083815260200190815260200160002060030160009054906101000a900460ff169050919050565b6000828051906020012060001c90506040518060800160405280828152602001848152602001838152602001600115158152506000808381526020019081526020016000206000820151816000015560208201518160010190805190602001906101ee9291906102e1565b506040820151816002015560608201518160030160006101000a81548160ff021916908315150217905550905050505050565b606060008083815260200190815260200160002060010180546102439061071f565b80601f016020809104026020016040519081016040528092919081815260200182805461026f9061071f565b80156102bc5780601f10610291576101008083540402835291602001916102bc565b820191906000526020600020905b81548152906001019060200180831161029f57829003601f168201915b50505050509050919050565b600080828051906020012060001c905080915050919050565b8280546102ed9061071f565b90600052602060002090601f01602090048101928261030f5760008555610356565b82601f1061032857805160ff1916838001178555610356565b82800160010185558215610356579182015b8281111561035557825182559160200191906001019061033a565b5b5090506103639190610367565b5090565b5b80821115610380576000816000905550600101610368565b5090565b6000604051905090565b600080fd5b600080fd5b6000819050919050565b6103ab81610398565b81146103b657600080fd5b50565b6000813590506103c8816103a2565b92915050565b6000602082840312156103e4576103e361038e565b5b60006103f2848285016103b9565b91505092915050565b61040481610398565b82525050565b600060208201905061041f60008301846103fb565b92915050565b60008115159050919050565b61043a81610425565b82525050565b60006020820190506104556000830184610431565b92915050565b600080fd5b600080fd5b6000601f19601f8301169050919050565b7f4e487b7100000000000000000000000000000000000000000000000000000000600052604160045260246000fd5b6104ae82610465565b810181811067ffffffffffffffff821117156104cd576104cc610476565b5b80604052505050565b60006104e0610384565b90506104ec82826104a5565b919050565b600067ffffffffffffffff82111561050c5761050b610476565b5b61051582610465565b9050602081019050919050565b82818337600083830152505050565b600061054461053f846104f1565b6104d6565b9050828152602081018484840111156105605761055f610460565b5b61056b848285610522565b509392505050565b600082601f8301126105885761058761045b565b5b8135610598848260208601610531565b91505092915050565b600080604083850312156105b8576105b761038e565b5b600083013567ffffffffffffffff8111156105d6576105d5610393565b5b6105e285828601610573565b92505060206105f3858286016103b9565b9150509250929050565b600081519050919050565b600082825260208201905092915050565b60005b8381101561063757808201518184015260208101905061061c565b83811115610646576000848401525b50505050565b6000610657826105fd565b6106618185610608565b9350610671818560208601610619565b61067a81610465565b840191505092915050565b6000602082019050818103600083015261069f818461064c565b905092915050565b6000602082840312156106bd576106bc61038e565b5b600082013567ffffffffffffffff8111156106db576106da610393565b5b6106e784828501610573565b91505092915050565b7f4e487b7100000000000000000000000000000000000000000000000000000000600052602260045260246000fd5b6000600282049050600182168061073757607f821691505b60208210810361074a576107496106f0565b5b5091905056fea2646970667358221220b8f13a6d48039847c0e3c324b473d2c00b8c472869aa36ca67c2297e5819276f64736f6c634300080e0033",
  "immutableReferences": {},
  "source": "// SPDX-License-Identifier: UNLICENSED\r\npragma solidity ^0.8.0;\r\n\r\ncontract RealEstate {\r\n\r\n    struct RealEstateData {\r\n        uint realEstateId;\r\n       // string il;\r\n        //string ilce;\r\n        string mahalle;\r\n        //string tasinmazTip;\r\n        //string nitelik; //TODO enum\r\n        //string ada;\r\n        //string parsel;\r\n        uint payda;\r\n        bool registered;\r\n        \r\n    }\r\n\r\n    mapping(uint => RealEstateData) realEstateMap; \r\n\r\n    function addRealEstate(string memory mahalle, uint payda) public{\r\n        uint realEstateId=uint(keccak256(bytes(mahalle))); //TODO bilgilerin daha nceden olmadn kontrol et\r\n        realEstateMap[realEstateId] = RealEstateData(realEstateId, mahalle, payda, true);\r\n    }\r\n\r\n    function isRealEstateRegisted(uint realEstateId) public view returns(bool){\r\n        return realEstateMap[realEstateId].registered;\r\n    }\r\n  \r\n    function getRealEstatePayda(uint realEstateId) public view returns(uint){\r\n        return realEstateMap[realEstateId].payda;\r\n    }\r\n\r\n    function getRealEstateInfo(uint realEstateId) public view returns(string memory) {\r\n        return realEstateMap[realEstateId].mahalle;\r\n    }\r\n\r\n    function getId(string memory mahalle) public pure returns(uint){\r\n        uint realEstateId=uint(keccak256(bytes(mahalle)));\r\n        return realEstateId;\r\n    }\r\n    \r\n}",
  "sourcePath": "D:\\Ethereum Projects\\DAWithEth\\truffle-project\\contracts\\RealEstate.sol",
  "compiler": {
    "name": "solc",
    "version": "0.8.14+commit.80d49f37.Emscripten.clang"
  },
  "schemaVersion": "3.4.11",
  "updatedAt": "2023-01-08T10:32:05.415Z",
  "devdoc": {
    "kind": "dev",
    "methods": {},
    "version": 1
  },
  "userdoc": {
    "kind": "user",
    "methods": {},
    "version": 1
  }
}